:020000040800F2
:1000000000000320FD3B0008CD310008D33100087B
:10001000D9310008DF310008E53100080000000098
:10002000000000000000000000000000EB310008AC
:10003000F9310008000000000732000815320008FE
:100040004D3C00084D3C00084D3C00084D3C00086C
:100050004D3C00084D3C00084D3C00084D3C00085C
:100060004D3C00084D3C00084D3C00084D3C00084C
:100070004D3C00084D3C00084D3C00084D3C00083C
:100080004D3C00084D3C00084D3C00084D3C00082C
:100090004D3C00084D3C00084D3C00084D3C00081C
:1000A0004D3C00084D3C00084D3C00084D3C00080C
:1000B0004D3C00084D3C00084D3C00084D3C0008FC
:1000C0004D3C00084D3C00084D3C00084D3C0008EC
:1000D0004D3C00084D3C00084D3C00082132000812
:1000E0004D3C00084D3C00084D3C00084D3C0008CC
:1000F0004D3C00084D3C00084D3C00084D3C0008BC
:100100004D3C00084D3C00084D3C00084D3C0008AB
:100110004D3C00084D3C00084D3C00084D3C00089B
:100120004D3C00084D3C00084D3C00084D3C00088B
:100130004D3C00084D3C00084D3C00084D3C00087B
:100140004D3C00084D3C00084D3C00084D3C00086B
:100150004D3C00084D3C00084D3C00084D3C00085B
:100160004D3C00084D3C00084D3C00084D3C00084B
:100170004D3C00084D3C00084D3C000800000000CC
:100180004D3C00084D3C00084D3C00084D3C00082B
:100190004D3C00084D3C00084D3C00084D3C00081B
:0C01A0004D3C00084D3C00084D3C0008A0
:1001B00010B5054C237833B9044B13B10448AFF3A1
:1001C00000800123237010BD8C000020000000007F
:1001D000543E010808B5034B1BB103490348AFF374
:1001E000008008BD0000000090000020543E01087F
:1001F00001F0FF01102A2BDB10F0070F08D010F8D8
:10020000013B013A8B422DD010F0070F42B3F6D1DB
:10021000F0B441EA012141EA014122F007047FF0F4
:1002200000070023F0E80256083C85EA010586EA4B
:10023000010685FA47F5A3FA87F586FA47F6A5FA87
:1002400087F68EB9EED1F0BC01F0FF0102F0070293
:1002500032B110F8013B013A83EA010313B1F8D13E
:100260000020704701387047002D06BF354603381F
:10027000073815F0010F07D1013015F4807F02BF58
:10028000013015F4C03F0130F0BC0138704700BFA9
:1002900053B94AB9002908BF00281CBF4FF0FF31ED
:1002A0004FF0FF3000F070B9ADF1080C6DE904CEED
:1002B00000F006F8DDF804E0DDE9022304B0704741
:1002C0002DE9F047089E0D4604460F46002B4AD103
:1002D0008A42944665D9B2FA82F343B102FA03FC2A
:1002E000C3F120029F4020FA02F217439C404FEADC
:1002F0001C4E1FFA8CF5B7FBFEF1220C0EFB11779A
:1003000042EA074201FB05F090420AD91CEB0202C7
:1003100001F1FF3780F01C81904240F219810239CF
:100320006244121AA4B2B2FBFEF00EFB102244EAA1
:10033000024400FB05F5A5420AD91CEB040400F1B8
:10034000FF3280F00781A54240F204816444023804
:1003500040EA0140641B00211EB1DC400023C6E9D5
:100360000043BDE8F0878B4208D9002E00F0ED80F5
:100370000021C6E900050846BDE8F087B3FA83F11D
:10038000002949D1AB4202D3824200F2F880841A9C
:1003900065EB030201201746002EE2D0C6E90047B4
:1003A000DFE702B9FFDEB2FA82F3002B40F0908063
:1003B0008A1A4FEA1C471FFA8CFE0121B2FBF7F59F
:1003C00007FB1520220C42EA00420EFB05F090428A
:1003D00008D91CEB020205F1FF3802D2904200F26C
:1003E000CB804546121AA4B2B2FBF7F007FB1022ED
:1003F00044EA02440EFB00FEA64508D91CEB0404A7
:1004000000F1FF3202D2A64500F2BB801046A4EBF9
:100410000E0440EA05409FE7C1F120078B4022FA15
:1004200007FC4CEA030C05FA01F420FA07F3FD403F
:100430004FEA1C492343B5FBF9F81FFA8CFE09FB70
:1004400018551C0C44EA054408FB0EF5A54202FAB7
:1004500001F200FA01F00BD91CEB040408F1FF3A99
:1004600080F08880A54240F28580A8F102086444AB
:10047000641B9DB2B4FBF9F309FB134445EA044441
:1004800003FB0EFEA64508D91CEB040403F1FF355F
:100490006CD2A6456AD9023B644443EA0843A3FBF5
:1004A0000295A4EB0E04AC42C846AE4656D353D0D8
:1004B00056B1B0EB080264EB0E0404FA07F7CA4029
:1004C000CC401743C6E9007418460021BDE8F08708
:1004D000C3F1200102FA03FC20FA01F225FA01F12E
:1004E0009D402A434FEA1C471FFA8CFEB1FBF7F0F0
:1004F00007FB1015110C41EA054100FB0EF58D427A
:1005000004FA03F408D91CEB010100F1FF382FD2E3
:100510008D422DD902386144491B92B2B1FBF7F5E7
:1005200007FB151142EA014205FB0EF1914208D981
:100530001CEB020205F1FF3816D2914214D9023D9C
:100540006244521A45EA004138E73146304608E72E
:100550003946E6E61046FBE64845A9D2B9EB020863
:1005600065EB0C0E013BA3E74546EAE72B4694E713
:100570004046D1E7D0467BE7023D624432E7084679
:100580000AE76444023842E7704700BF80B483B092
:1005900000AF78607B6800221A607B6800225A6096
:1005A0007B6800229A6000BF0C37BD465DF8047B73
:1005B000704780B483B000AF78600B46FB707B68F7
:1005C0009B68642B01D1002317E07B681B687A6865
:1005D0001344FA781A737B681B685A1C7B681A608C
:1005E0007B689B685A1C7B689A607B681B68642BDD
:1005F00002D17B6800221A60012318460C37BD46E1
:100600005DF8047B7047000080B500AF1C48FFF721
:10061000BDFF03F07DFC00F043F800F0B5F907F0F2
:100620005BFA00F0E3F800F05BF900F02FF900F05E
:10063000A7F800F07FF9134B41221A7002F0D6FEA2
:1006400001220421104805F063F901224FF4806172
:100650000D4805F05DF901224FF480610B4805F06B
:1006600057F908220A490B4806F0C5FA0A4805F06E
:10067000E9FE0A4807F092FC0FF088FEF9E700BF98
:100680003C050020AC05002000100240001802408C
:1006900020050020D801002000010020B80500201E
:1006A00080B594B000AF07F1200330220021184636
:1006B00012F023FD07F10C0300221A605A609A60C1
:1006C000DA601A610023BB602B4B1B6C2A4A43F093
:1006D00080531364284B1B6C03F08053BB60BB68D2
:1006E00000237B60254B1B68244A43F4404313607E
:1006F000224B1B6803F440437B607B6802233B6210
:100700000123FB6210233B630223BB630023FB63D3
:1007100008233B64B4237B640223BB640423FB648F
:1007200007F12003184605F05DF90346002B01D0C0
:1007300002F0F8FB05F006F90346002B01D002F0A9
:10074000F1FB0F23FB6002233B6100237B614FF42D
:10075000A053BB614FF48053FB6107F10C030521EB
:10076000184605F0B7FB0346002B01D002F0DAFB78
:1007700000BF5037BD4680BD0038024000700040C9
:1007800080B500AF174B184A1A60164B4FF48272AF
:100790005A60144B00229A60124B0022DA60114B0F
:1007A00000221A610F4B00225A610E4B4FF4007267
:1007B0009A610C4B1022DA610A4B00221A62094B33
:1007C00000225A62074B00229A62064B0A22DA6222
:1007D000044805F05FFD0346002B01D002F0A2FBA8
:1007E00000BF80BDA80000200050014080B586B049
:1007F00000AF07F1080300221A605A609A60DA60BD
:100800003B4600221A605A601E4B1F4A1A601D4B5D
:10081000B3225A601B4B00229A601A4B4FF6FF72AC
:10082000DA60184B00221A61164B00225A61154BF0
:1008300000229A61134805F0B6FD0346002B01D053
:1008400002F070FB4FF48053BB6007F108031946B8
:100850000C4805F05FFE0346002B01D002F062FB5E
:1008600000233B6000237B603B461946054806F0A9
:100870005FF80346002B01D002F054FB00BF18378D
:10088000BD4680BD000100200000014080B500AFE2
:10089000114B124A1A60104B4FF4E1325A600E4B62
:1008A00000229A600C4B0022DA600B4B00221A6186
:1008B000094B0C225A61084B00229A61064B002218
:1008C000DA61054806F0B0F80346002B01D002F0CB
:1008D00029FB00BF80BD00BF48010020001001407F
:1008E00080B500AF114B124A1A60104B4FF4E13241
:1008F0005A600E4B00229A600C4B0022DA600B4BC0
:1009000000221A61094B0C225A61084B00229A619D
:10091000064B0022DA61054806F086F80346002BF4
:1009200001D002F0FFFA00BF80BD00BF900100209F
:100930000044004080B500AF114B124A1A60104BC2
:100940004FF4E1325A600E4B00229A600C4B0022A9
:10095000DA600B4B00221A61094B0C225A61084BDA
:1009600000229A61064B0022DA61054806F05CF825
:100970000346002B01D002F0D5FA00BF80BD00BFB6
:10098000D80100200048004080B590B000AF07F1CA
:100990002C0300221A605A609A60DA601A61002300
:1009A000BB62B04B1B6BAF4A43F010031363AD4BFC
:1009B0001B6B03F01003BB62BB6A00237B62A94B75
:1009C0001B6BA84A43F480731363A64B1B6B03F4A1
:1009D00080737B627B6A00233B62A24B1B6BA14A44
:1009E00043F0200313639F4B1B6B03F020033B6218
:1009F0003B6A0023FB619B4B1B6B9A4A43F0040349
:100A00001363984B1B6B03F00403FB61FB6900232A
:100A1000BB61944B1B6B934A43F001031363914BEF
:100A20001B6B03F00103BB61BB6900237B618D4B32
:100A30001B6B8C4A43F0800313638A4B1B6B03F0E0
:100A400080037B617B6900233B61864B1B6B854A7E
:100A500043F002031363834B1B6B03F002033B6100
:100A60003B690023FB607F4B1B6B7E4A43F40073A2
:100A700013637C4B1B6B03F40073FB60FB68002368
:100A8000BB60784B1B6B774A43F008031363754BCD
:100A90001B6B03F00803BB60BB6800237B60714BDA
:100AA0001B6B704A43F0400313636E4B1B6B03F0E8
:100AB00040037B607B6800233B606A4B1B6B694A89
:100AC00043F480631363674B1B6B03F480633B60E9
:100AD0003B68002240F20641634804F019FF0122FE
:100AE00048F27901604804F013FF002240215F487A
:100AF00004F00EFF012201215D4804F009FF0122EC
:100B00004FF40061594804F003FF012243F61041FD
:100B1000584804F0FDFE012249F23811564804F00D
:100B2000F7FE00224FF48061534804F0F1FE0122E9
:100B30004FF40071514804F0EBFE48F27F43FB6232
:100B400001233B6300237B630023BB6307F12C037A
:100B50001946454804F018FD4FF2FF33FB620023AD
:100B60003B6300237B6307F12C031946444804F0E0
:100B70000BFD40F20C43FB6200233B6300237B63CD
:100B800007F12C031946394804F0FEFC4FF40463C6
:100B9000FB6201233B6300237B630023BB6307F1FC
:100BA0002C031946314804F0EFFC0123FB620123BA
:100BB0003B6300237B630023BB6307F12C031946CF
:100BC0002B4804F0E1FC4FF63063FB6200233B63EB
:100BD00000237B6307F12C0319462A4804F0D4FC58
:100BE00041F60813FB6200233B6300237B6307F19C
:100BF0002C031946244804F0C7FC40F20343FB626F
:100C000000233B6300237B6307F12C0319461B4839
:100C100004F0BAFC40F2FF23FB6200233B63002395
:100C20007B6307F12C031946184804F0ADFC4FF420
:100C30006073FB6200233B6300237B6307F12C039B
:100C40001946094804F0A0FC43F61043FB62012357
:100C50003B6300237B630023BB6307F12C0319462E
:100C600016E000BF003802400010024000140240AD
:100C700000080240000C024000180240000402403C
:100C800000200240001C02400000024000240240FC
:100C90002B4804F079FC4CF20F03FB6200233B630A
:100CA00000237B6307F12C031946254804F06CFCF4
:100CB00049F23853FB6201233B6300237B6300232B
:100CC000BB6307F12C0319461E4804F05DFC40236A
:100CD000FB6200233B6300237B6307F12C0319466F
:100CE000184804F051FC4FF4F853FB6200233B63B7
:100CF00000237B6307F12C031946134804F044FCDE
:100D0000E023FB6200233B6300237B6307F12C039A
:100D100019460E4804F038FC4FF40073FB620123BF
:100D20003B6300237B630023BB6307F12C0319465D
:100D3000074804F029FC00BF4037BD4680BD00BF16
:100D4000000C024000180240000802400028024047
:100D50000004024080B483B000AF7860084B1B6889
:100D600000225A6200BF064B1B685B6A7A689A428F
:100D7000F9D800BF00BF0C37BD465DF8047B704753
:100D80000001002080B584B000AF78600023FB60D4
:100D900006E04FF47A70FFF7DDFFFB680133FB607C
:100DA000FA687B689A42F4D300BF00BF1037BD4693
:100DB00080BD000080B584B000AF03460A46FB71D9
:100DC0001346BB71FB79013B0D2B01F2958101A20A
:100DD00052F823F00D0E0008DB100008BF140008C5
:100DE000871500081717000827170008371700088D
:100DF00041170008051B0008BF1B0008491D00081B
:100E0000891F0008B91E00083F200008BB79013B7C
:100E1000032B00F2538101A252F823F02D0E00089B
:100E2000D30E0008790F00081B1000084FF4004192
:100E3000B74804F055FD03461A46B64B1A744FF4F2
:100E40008041B34804F04CFD03461A46B24B1A7475
:100E50006420FFF797FF4FF40041AD4804F040FDD8
:100E600003461A46AB4B1A744FF48041A84804F06D
:100E700037FD03461A46A84B1A746420FFF782FF19
:100E8000A44B1B7C012B08D1A34B1B7C012B04D151
:100E90000123FB73FB7B01F030B99E4B1B7C012BC4
:100EA00008D19D4B1B7C002B04D10223FB73FB7BE1
:100EB00001F023B9974B1B7C002B40F00281964B2D
:100EC0001B7C002B40F0FD800323FB73FB7B01F0B8
:100ED00014B94FF400518E4804F002FD03461A463F
:100EE0008C4B5A744FF480518C4804F0F9FC034643
:100EF0001A46894B5A746420FFF744FF4FF400519F
:100F0000834804F0EDFC03461A46824B5A744FF4B2
:100F10008051824804F0E4FC03461A467E4B5A7422
:100F20006420FFF72FFF7B4B5B7C012B08D17A4BB2
:100F30005B7C012B04D10123FB73FB7B01F0DDB84B
:100F4000744B5B7C012B08D1734B5B7C002B04D171
:100F50000223FB73FB7B01F0D0B86E4B5B7C002B54
:100F600040F0B2806C4B5B7C002B40F0AD800323E3
:100F7000FB73FB7B01F0C1B84FF40061674804F0DC
:100F8000AFFC03461A46634B9A744FF48071634872
:100F900004F0A6FC03461A465F4B9A746420FFF7E0
:100FA000F1FE4FF400615D4804F09AFC03461A46D6
:100FB000584B9A744FF48071584804F091FC0346E2
:100FC0001A46554B9A746420FFF7DCFE514B9B7C0C
:100FD000012B08D1504B9B7C012B04D10123FB73C7
:100FE000FB7B01F08AB84B4B9B7C012B08D14A4B11
:100FF0009B7C002B04D10223FB73FB7B01F07DB8AB
:10100000444B9B7C002B62D1434B9B7C002B5ED1DD
:101010000323FB73FB7B01F070B84FF40071404871
:1010200004F05EFC03461A463A4BDA744FF48071C2
:101030003B4804F055FC03461A46374BDA746420EB
:10104000FFF7A0FE4FF40071354804F049FC034659
:101050001A46304BDA744FF48071314804F040FC8A
:1010600003461A462C4BDA746420FFF78BFE294B9B
:10107000DB7C012B08D1284BDB7C012B04D1012325
:10108000FB73FB7B01F039B8224BDB7C012B08D1D1
:10109000214BDB7C002B04D10223FB73FB7B01F093
:1010A0002CB81C4BDB7C002B14D11B4BDB7C002BA6
:1010B00010D10323FB73FB7B01F01FB800BF01F0CD
:1010C0001CB800BF01F019B800BF01F016B800BF8E
:1010D00001F013B800BF01F010B8BB79013B082B39
:1010E00000F2DB8101A252F823F000BF25110008B5
:1010F0009B140008C71100089B140008791200080F
:101100009B1400082B1300089B140008ED13000823
:10111000001C0240F0020020D40300200000024026
:10112000000802404021AC4804F0DAFB03461A46AE
:10113000AA4BDA774FF40041A94804F0D1FB0346EB
:101140001A46A84BDA776420FFF71CFE4021A2481C
:1011500004F0C6FB03461A46A04BDA774FF4004171
:101160009F4804F0BDFB03461A469E4BDA77642085
:10117000FFF708FE994BDB7F012B08D1994BDB7FF2
:10118000012B04D10123FB73FB7B00F0B6BF934B13
:10119000DB7F012B08D1934BDB7F002B04D1022393
:1011A000FB73FB7B00F0A9BF8C4BDB7F002B40F077
:1011B00077818C4BDB7F002B40F072810323FB7324
:1011C000FB7B00F09ABF0121874804F089FB0346AE
:1011D0001A46824B83F821200221834804F080FBC9
:1011E00003461A467F4B83F821206420FFF7CAFD8F
:1011F00001217D4804F074FB03461A46774B83F8BF
:1012000021200221784804F06BFB03461A46754BF7
:1012100083F821206420FFF7B5FD704B93F821304F
:10122000012B09D16F4B93F82130012B04D10123FD
:10123000FB73FB7B00F061BF684B93F82130012BFF
:1012400009D1684B93F82130002B04D10223FB73A2
:10125000FB7B00F052BF614B93F82130002B40F034
:101260002281604B93F82130002B40F01C81032336
:10127000FB73FB7B00F041BF04215B4804F030FBB3
:1012800003461A46554B83F823200821564804F09C
:1012900027FB03461A46534B83F823206420FFF7AD
:1012A00071FD0421504804F01BFB03461A464B4BCA
:1012B00083F8232008214C4804F012FB03461A4609
:1012C000484B83F823206420FFF75CFD434B93F8E1
:1012D0002330012B09D1434B93F82330012B04D148
:1012E0000123FB73FB7B00F008BF3C4B93F82330DA
:1012F000012B09D13B4B93F82330002B04D102235F
:10130000FB73FB7B00F0F9BE344B93F82330002BCA
:1013100040F0CC80334B93F82330002B40F0C68054
:101320000323FB73FB7B00F0E8BE10212E4804F082
:10133000D7FA03461A46294B83F8252020212A484C
:1013400004F0CEFA03461A46264B83F82520642083
:10135000FFF718FD1021244804F0C2FA03461A468C
:101360001E4B83F8252020211F4804F0B9FA0346BC
:101370001A461C4B83F825206420FFF703FD174B0A
:1013800093F82530012B09D1164B93F82530012B0A
:1013900004D10123FB73FB7B00F0AFBE0F4B93F82E
:1013A0002530012B09D10F4B93F82530002B04D1A8
:1013B0000223FB73FB7B00F0A0BE084B93F82530A3
:1013C000002B76D1074B93F82530002B71D10323E6
:1013D000FB73FB7B00F091BE00180240F00200207E
:1013E00000200240D4030020002402404021B848DD
:1013F00004F076FA03461A46B64B83F8272080217C
:10140000B34804F06DFA03461A46B34B83F827201D
:101410006420FFF7B7FC4021AD4804F061FA0346B1
:101420001A46AC4B83F827208021A94804F058FACB
:1014300003461A46A84B83F827206420FFF7A2FC36
:10144000A44B93F82730012B09D1A34B93F82730F5
:10145000012B04D10123FB73FB7B00F04EBE9D4B9F
:1014600093F82730012B09D19B4B93F82730002BA1
:1014700004D10223FB73FB7B00F03FBE954B93F836
:101480002730002B18D1944B93F82730002B13D121
:101490000323FB73FB7B00F030BE00BF00F02DBECA
:1014A00000BF00F02ABE00BF00F027BE00BF00F062
:1014B00024BE00BF00F021BE00BF00F01EBEBB79FD
:1014C000012B5AD14FF40071814804F009FA034608
:1014D0001A46804B83F82E204FF480617F4804F039
:1014E000FFF903461A467C4B83F82E206420FFF751
:1014F00049FC4FF40071764804F0F2F903461A46AD
:10150000744B83F82E204FF48061744804F0E8F99E
:1015100003461A46704B83F82E206420FFF732FCF6
:101520006C4B93F82E30012B09D16B4B93F82E3076
:10153000012B04D10123FB73FB7B00F0DEBD654B67
:1015400093F82E30012B09D1634B93F82E30002BEA
:1015500004D10223FB73FB7B00F0CFBD5D4B93F8FE
:101560002E30002B0CD15C4B93F82E30002B07D182
:101570000323FB73FB7B00F0C0BD00BF00F0BDBDCB
:1015800000BF00F0BABDBB790B2B02D00C2B57D09B
:10159000BFE01021524804F0A3F903461A464D4B10
:1015A00083F8472020214E4804F09AF903461A4652
:1015B000494B83F847206420FFF7E4FB102148489B
:1015C00004F08EF903461A46424B83F84720202147
:1015D000434804F085F903461A463F4B83F84720F9
:1015E0006420FFF7CFFB3B4B93F84730012B09D129
:1015F000394B93F84730012B04D10123FB73FB7B5C
:1016000000F07BBD334B93F84730012B09D1324BAF
:1016100093F84730002B04D10223FB73FB7B00F0CF
:101620006CBD2C4B93F84730002B6ED12A4B93F8AE
:101630004730002B69D10323FB73FB7B00F05DBDBA
:101640000821284804F04CF903461A46214B83F838
:1016500048200121244804F043F903461A461E4B52
:1016600083F848206420FFF78DFB08211D4804F013
:1016700037F903461A46174B83F8482001211A48C8
:1016800004F02EF903461A46134B83F848206420D1
:10169000FFF778FB0F4B93F84830012B09D10E4B25
:1016A00093F84830012B04D10123FB73FB7B00F03E
:1016B00024BD084B93F84830012B17D1064B93F803
:1016C0004830002B12D10223FB73FB7B00F015BDC9
:1016D00000240240F0020020D40300200014024045
:1016E000001C02400000024000040240A64B93F898
:1016F0004830002B0CD1A54B93F84830002B07D174
:101700000323FB73FB7B00F0F8BC00BF00F0F5BCCB
:1017100000BF00F0F2BCBB79012B01D0042B00E02C
:1017200000BF00F0EABCBB79012B01D0042B00E024
:1017300000BF00F0E2BCBB79082B00BF00F0DDBCAD
:10174000BB79013B092B00F2D18101A252F823F0B1
:1017500079170008ED1A0008ED1A0008ED1A0008C4
:10176000ED1A00082B180008DD180008951900086C
:10177000ED1A00083D1A00080121854804F0B0F870
:1017800003461A46804B83F879200221804804F0F2
:10179000A7F803461A467D4B83F879206420FFF7AB
:1017A000F1FA01217A4804F09BF803461A46764B79
:1017B00083F879200221764804F092F803461A460D
:1017C000724B83F879206420FFF7DCFA6E4B93F8B4
:1017D0007930012B09D16D4B93F87930012B04D16D
:1017E0000123FB73FB7B00F088BC674B93F87930D7
:1017F000012B09D1654B93F87930002B04D10223DA
:10180000FB73FB7B00F079BC5F4B93F87930002BC6
:1018100040F06E815D4B93F87930002B40F0688189
:101820000323FB73FB7B00F068BC0421584804F0E1
:1018300057F803461A46544B83F87E200821544833
:1018400004F04EF803461A46504B83F87E2064207D
:10185000FFF798FA04214E4804F042F803461A466E
:10186000494B83F87E200821494804F039F80346A3
:101870001A46464B83F87E206420FFF783FA424BDA
:1018800093F87E30012B09D1404B93F87E30012B29
:1018900004D10123FB73FB7B00F02FBC3A4B93F880
:1018A0007E30012B09D1394B93F87E30002B04D1C7
:1018B0000223FB73FB7B00F020BC334B93F87E309C
:1018C000002B40F01781314B93F87E30002B40F015
:1018D00011810323FB73FB7B00F00FBC10212C480C
:1018E00003F0FEFF03461A46274B83F87F20202192
:1018F000274803F0F5FF03461A46244B83F87F2060
:101900006420FFF73FFA1021214803F0E9FF034666
:101910001A461D4B83F87F2020211D4803F0E0FF6D
:1019200003461A46194B83F87F206420FFF72AFAF2
:10193000154B93F87F30012B08D1144B93F87F306F
:10194000012B03D10123FB73FB7BD6E30E4B93F8F2
:101950007F30012B08D10D4B93F87F30002B03D142
:101960000223FB73FB7BC8E3074B93F87F30002B0C
:1019700040F0C280054B93F87F30002B40F0BC80D4
:101980000323FB73FB7BB8E3F0020020D4030020A9
:10199000002002404021B24803F0A2FF03461A464D
:1019A000B04B83F880208021AD4803F099FF0346B7
:1019B0001A46AD4B83F880206420FFF7E3F94021FD
:1019C000A74803F08DFF03461A46A64B83F88020F4
:1019D0008021A34803F084FF03461A46A24B83F8F4
:1019E00080206420FFF7CEF99E4B93F88030012BC6
:1019F00008D19D4B93F88030012B03D10123FB7359
:101A0000FB7B7AE3974B93F88030012B08D1964B00
:101A100093F88030002B03D10223FB73FB7B6CE334
:101A2000904B93F88030002B68D18F4B93F8803027
:101A3000002B63D10323FB73FB7B5EE34FF48071C8
:101A4000874803F04DFF03461A46864B83F88220F1
:101A50004FF40071824803F043FF03461A46824B5D
:101A600083F882206420FFF78DF94FF480717C4861
:101A700003F036FF03461A467A4B83F882204FF470
:101A80000071774803F02CFF03461A46764B83F823
:101A900082206420FFF776F9724B93F88230012B95
:101AA00008D1714B93F88230012B03D10123FB73D2
:101AB000FB7B22E36B4B93F88230012B08D16A4BFE
:101AC00093F88230002B03D10223FB73FB7B14E3DA
:101AD000644B93F88230002B12D1634B93F8823021
:101AE000002B0DD10323FB73FB7B06E300BF04E354
:101AF00000BF02E300BF00E300BFFEE200BFFCE264
:101B000000BFFAE2BB79012B55D10221574803F0FF
:101B1000E7FE03461A46534B83F888204FF4806152
:101B2000524803F0DDFE03461A464F4B83F88820E7
:101B30006420FFF727F902214C4803F0D1FE034649
:101B40001A46484B83F888204FF48061474803F0D9
:101B5000C7FE03461A46444B83F888206420FFF7EB
:101B600011F9404B93F88830012B08D13E4B93F884
:101B70008830012B03D10123FB73FB7BBDE2394B82
:101B800093F88830012B08D1374B93F88830002B1D
:101B900003D10223FB73FB7BAFE2324B93F8883017
:101BA000002B0AD1304B93F88830002B05D103234A
:101BB000FB73FB7BA1E200BF9FE200BF9DE2BB790C
:101BC000012B02D0022B63D0BDE04FF400712848F6
:101BD00003F086FE03461A46224B83F897204FF403
:101BE0008061234803F07CFE03461A461E4B83F8AF
:101BF00097206420FFF7C6F84FF400711C4803F0EB
:101C00006FFE03461A46174B83F897204FF4806106
:101C1000174803F065FE03461A46134B83F89720D6
:101C20006420FFF7AFF80F4B93F89730012B08D1E2
:101C30000D4B93F89730012B03D10123FB73FB7BF2
:101C40005BE2084B93F89730012B13D1064B93F8C6
:101C50009730002B0ED10223FB73FB7B4DE200BFBC
:101C600000200240F0020020D403002000040240C3
:101C7000001C0240B64B93F89730002B60D1B54B57
:101C800093F89730002B5BD10323FB73FB7B34E28B
:101C90004FF40061B04803F023FE03461A46AC4BF4
:101CA00083F898204FF48051AB4803F019FE0346A7
:101CB0001A46A84B83F898206420FFF763F84FF486
:101CC0000061A54803F00CFE03461A46A04B83F8BA
:101CD00098204FF48051A04803F002FE03461A46B4
:101CE0009C4B83F898206420FFF74CF8984B93F8AE
:101CF0009830012B08D1974B93F89830012B03D1E2
:101D00000123FB73FB7BF8E1914B93F89830012B97
:101D100008D1904B93F89830002B03D10223FB732A
:101D2000FB7BEAE18A4B93F89830002B0AD1894B70
:101D300093F89830002B05D10323FB73FB7BDCE188
:101D400000BFDAE100BFD8E1BB79012B02D0022B42
:101D500058D0B0E04FF48061804803F0C1FD0346E5
:101D60001A467B4B83F8A6204FF400617B4803F0B2
:101D7000B7FD03461A46774B83F8A6206420FFF789
:101D800001F84FF48061754803F0AAFD03461A4636
:101D90006F4B83F8A6204FF40061704803F0A0FD5C
:101DA00003461A466B4B83F8A6206420FEF7EAFF31
:101DB000674B93F8A630012B08D1664B93F8A630F9
:101DC000012B03D10123FB73FB7B96E1604B93F85E
:101DD000A630012B08D15F4B93F8A630002B03D11E
:101DE0000223FB73FB7B88E1594B93F8A630002B51
:101DF0005ED1584B93F8A630002B59D10323FB73C7
:101E0000FB7B7AE14FF48051544803F069FD0346AF
:101E10001A464F4B83F8A7200421504803F060FD79
:101E200003461A464B4B83F8A7206420FEF7AAFF0F
:101E30004FF48051494803F053FD03461A46444B82
:101E400083F8A7200421454803F04AFD03461A46BB
:101E5000404B83F8A7206420FEF794FF3C4B93F897
:101E6000A730012B08D13B4B93F8A730012B03D1AE
:101E70000123FB73FB7B40E1354B93F8A730012B2B
:101E800008D1344B93F8A730002B03D10223FB7306
:101E9000FB7B32E12E4B93F8A730002B0AD12D4B60
:101EA00093F8A730002B05D10323FB73FB7B24E1C0
:101EB00000BF22E100BF20E1BB79012B60D10821E6
:101EC000274803F00DFD03461A46214B83F8C42032
:101ED0004FF48041224803F003FD03461A461D4B90
:101EE00083F8C4206420FEF74DFF08211C4803F04E
:101EF000F7FC03461A46164B83F8C4204FF4804182
:101F0000174803F0EDFC03461A46124B83F8C42031
:101F10006420FEF737FF0E4B93F8C430012B08D135
:101F20000C4B93F8C430012B03D10123FB73FB7BD3
:101F3000E3E0074B93F8C430012B13D1054B93F822
:101F4000C430002B0ED10223FB73FB7BD5E000BF16
:101F5000F0020020D4030020001C024000080240D0
:101F6000000C0240674B93F8C430002B0AD1664B3B
:101F700093F8C430002B05D10323FB73FB7BBCE03B
:101F800000BFBAE000BFB8E0BB79012B53D10221FA
:101F90005E4803F0A5FC03461A465A4B83F8B52069
:101FA00080215B4803F09CFC03461A46564B83F89D
:101FB000B5206420FEF7E6FE0221544803F090FCB1
:101FC00003461A464F4B83F8B5208021504803F052
:101FD00087FC03461A464C4B83F8B5206420FEF775
:101FE000D1FE484B93F8B530012B08D1464B93F8FE
:101FF000B530012B03D10123FB73FB7B7DE0414B0B
:1020000093F8B530012B08D13F4B93F8B530002B36
:1020100003D10223FB73FB7B6FE03A4B93F8B5309F
:10202000002B0AD1384B93F8B530002B05D1032390
:10203000FB73FB7B61E000BF5FE000BF5DE0BB794D
:10204000012B55D14FF40041304803F049FC0346C1
:102050001A462C4B83F8D32001212C4803F040FC76
:1020600003461A46284B83F8D3206420FEF78AFEE5
:102070004FF40041254803F033FC03461A46214B38
:1020800083F8D3200121214803F02AFC03461A4695
:102090001D4B83F8D3206420FEF774FE194B93F890
:1020A000D330012B08D1184B93F8D330012B03D137
:1020B0000123FB73FB7B20E0124B93F8D330012B01
:1020C00008D1114B93F8D330002B03D10223FB73BB
:1020D000FB7B12E00B4B93F8D330002B0AD10A4B59
:1020E00093F8D330002B05D10323FB73FB7B04E073
:1020F00000BF02E000BF00E000BF18461037BD4639
:1021000080BD00BFF0020020D4030020000C02407C
:102110000010024080B584B000AF03460A46FB7150
:102120001346BB71FB79053B302B00F2288301A2DB
:1021300052F823F0F92100087F2700087F270008C4
:102140007F2700087F2700087F2700087F270008D7
:102150007F2700087F2700087F2700087F270008C7
:10216000C32200087F2700087F2700087F27000878
:102170007F2700088D2300087F2700087F2700089D
:102180007F2700087F2700087F2700087F27000897
:102190007F2700087F2700087F2700087F27000887
:1021A000572400087F2700087F2700087F270008A2
:1021B0007F270008212500087F2700087F270008C7
:1021C0007F2700087F2700087F2700087F27000857
:1021D0007F2700087F2700087F2700087F27000847
:1021E000EB2500087F2700087F2700087F270008CD
:1021F0007F270008B5260008BB79012B30D0022BC1
:102200005DD1FB79184600F0B3FBC820FEF7BAFD9C
:10221000FB79184600F0F4FC0346012B0FD1322065
:10222000FEF7B0FDFB79184600F0EAFC0346012BEF
:1022300002D10223FB7343E00123FB7340E04FF420
:10224000FA60FEF79FFDFB79184600F0D9FC0346C3
:10225000012B02D10223FB7332E00123FB732FE039
:10226000FB79184600F028FCC820FEF78BFDFB79AF
:10227000184600F0C5FC0346002B0FD13220FEF7B4
:1022800081FDFB79184600F0BBFC0346002B02D110
:102290000323FB7314E00123FB7311E04FF4FA6096
:1022A000FEF770FDFB79184600F0AAFC0346002BF0
:1022B00002D10323FB7303E00123FB7300E000BFA3
:1022C00060E2BB79012B30D0022B5DD1FB7918463F
:1022D00000F04EFBC820FEF755FDFB79184600F0D4
:1022E0008FFC0346012B0FD13220FEF74BFDFB790B
:1022F000184600F085FC0346012B02D10223FB7334
:1023000043E00123FB7340E04FF4FA60FEF73AFD2F
:10231000FB79184600F074FC0346012B02D102231E
:10232000FB7332E00123FB732FE0FB79184600F0CA
:10233000C3FBC820FEF726FDFB79184600F060FCC1
:102340000346002B0FD13220FEF71CFDFB79184607
:1023500000F056FC0346002B02D10323FB7314E06C
:102360000123FB7311E04FF4FA60FEF70BFDFB79DC
:10237000184600F045FC0346002B02D10323FB73F3
:1023800003E00123FB7300E000BFFBE1BB79012BFD
:1023900030D0022B5DD1FB79184600F0E9FAC82055
:1023A000FEF7F0FCFB79184600F02AFC0346012BEF
:1023B0000FD13220FEF7E6FCFB79184600F020FC36
:1023C0000346012B02D10223FB7343E00123FB737D
:1023D00040E04FF4FA60FEF7D5FCFB79184600F0B8
:1023E0000FFC0346012B02D10223FB7332E00123D1
:1023F000FB732FE0FB79184600F05EFBC820FEF768
:10240000C1FCFB79184600F0FBFB0346002B0FD103
:102410003220FEF7B7FCFB79184600F0F1FB0346CB
:10242000002B02D10323FB7314E00123FB7311E0A3
:102430004FF4FA60FEF7A6FCFB79184600F0E0FBCB
:102440000346002B02D10323FB7303E00123FB733C
:1024500000E000BF96E1BB79012B30D0022B5DD1AB
:10246000FB79184600F084FAC820FEF78BFCFB7954
:10247000184600F0C5FB0346012B0FD13220FEF7B2
:1024800081FCFB79184600F0BBFB0346012B02D10F
:102490000223FB7343E00123FB7340E04FF4FA6037
:1024A000FEF770FCFB79184600F0AAFB0346012BEF
:1024B00002D10223FB7332E00123FB732FE0FB798F
:1024C000184600F0F9FAC820FEF75CFCFB791846C4
:1024D00000F096FB0346002B0FD13220FEF752FC92
:1024E000FB79184600F08CFB0346002B02D1032336
:1024F000FB7314E00123FB7311E04FF4FA60FEF765
:1025000041FCFB79184600F07BFB0346002B02D10F
:102510000323FB7303E00123FB7300E000BF31E101
:10252000BB79012B30D0022B5DD1FB79184600F02E
:102530001FFAC820FEF726FCFB79184600F060FB66
:102540000346012B0FD13220FEF71CFCFB79184605
:1025500000F056FB0346012B02D10223FB7343E03C
:102560000123FB7340E04FF4FA60FEF70BFCFB79AC
:10257000184600F045FB0346012B02D10223FB73F2
:1025800032E00123FB732FE0FB79184600F094FA48
:10259000C820FEF7F7FBFB79184600F031FB034635
:1025A000002B0FD13220FEF7EDFBFB79184600F02F
:1025B00027FB0346002B02D10323FB7314E0012306
:1025C000FB7311E04FF4FA60FEF7DCFBFB79184671
:1025D00000F016FB0346002B02D10323FB7303E03C
:1025E0000123FB7300E000BFCCE0BB79012B30D0AE
:1025F000022B5DD1FB79184600F0BAF9C820FEF72E
:10260000C1FBFB79184600F0FBFA0346012B0FD102
:102610003220FEF7B7FBFB79184600F0F1FA0346CB
:10262000012B02D10223FB7343E00123FB7340E043
:102630004FF4FA60FEF7A6FBFB79184600F0E0FACB
:102640000346012B02D10223FB7332E00123FB730B
:102650002FE0FB79184600F02FFAC820FEF792FB16
:10266000FB79184600F0CCFA0346002B0FD132203C
:10267000FEF788FBFB79184600F0C2FA0346002BF0
:1026800002D10323FB7314E00123FB7311E04FF429
:10269000FA60FEF777FBFB79184600F0B1FA0346C3
:1026A000002B02D10323FB7303E00123FB7300E043
:1026B00000BF67E0BB79032B02D0042B2FD05DE075
:1026C000FB79184600F054F9C820FEF75BFBFB7954
:1026D000184600F095FA0346012B0FD13220FEF781
:1026E00051FBFB79184600F08BFA0346012B02D10F
:1026F0000223FB7342E00123FB733FE04FF4FA60D7
:10270000FEF740FBFB79184600F07AFA0346012BEE
:1027100002D10223FB7331E00123FB732EE0FB792E
:10272000184600F0C9F9C820FEF72CFBFB791846C3
:1027300000F066FA0346002B0FD13220FEF722FB91
:10274000FB79184600F05CFA0346002B02D1032304
:10275000FB7312E00123FB730FE04FF4FA60FEF706
:1027600011FBFB79184600F04BFA0346002B02D10F
:102770000323FB7301E00123FB7300BF02E001238D
:10278000FB7300BFFB7B18461037BD4680BD00BF02
:1027900080B584B000AF03460A46FB711346BB7197
:1027A0000023FB73FB79422B76D0422B00F38D8004
:1027B000402B02D0412B1AD087E0BB79012B02D0ED
:1027C000022B08D00FE0FB790121184600F0F2FA45
:1027D0000123FB730AE0FB790121184600F046FB58
:1027E0000123FB7302E00023FB7300BF6EE0BB79A3
:1027F000043B102B4CD801A252F823F041280008CA
:102800009128000891280008912800085128000804
:1028100091280008912800089128000861280008E4
:1028200091280008912800089128000871280008C4
:1028300091280008912800089128000881280008A4
:10284000FB790121184600F0B5FA0123FB7322E061
:10285000FB790121184600F009FB0123FB731AE004
:10286000FB790221184600F0A5FA0123FB7312E060
:10287000FB790221184600F0F9FA0123FB730AE004
:10288000FB790321184600F0F1FA0123FB7302E003
:102890000023FB7300BF19E0BB79202B02D0402B33
:1028A00008D00FE0FB790121184600F083FA0123DC
:1028B000FB730AE0FB790121184600F0D7FA0123E7
:1028C000FB7302E00023FB7300BF00BFFB7B1846D5
:1028D0001037BD4680BD00BF80B584B000AF7860C2
:1028E0007B68134A934215D10023FB600AE0114A2A
:1028F000FB6813441B7819460F48FDF75AFEFB6826
:102900000133FB60FB68092BF1DD0A220949084805
:1029100004F071F97B68094A934204D108220849FE
:10292000064804F068F900BF1037BD4680BD00BFFF
:1029300048010020280500203C050020D801002087
:102940002005002080B582B000AF78607B68064A21
:10295000934205D1642308220449034804F0B4F8E3
:1029600000BF0837BD4680BDD801002020050020EB
:1029700080B582B000AF0346FB71FB79053B302B7D
:1029800000F2918001A252F823F000BF512A000802
:10299000A72A0008A72A0008A72A0008A72A0008D3
:1029A000A72A0008A72A0008A72A0008A72A0008C3
:1029B000A72A0008A72A00085D2A0008A72A0008FD
:1029C000A72A0008A72A0008A72A0008692A0008E1
:1029D000A72A0008A72A0008A72A0008A72A000893
:1029E000A72A0008A72A0008A72A0008A72A000883
:1029F000A72A0008A72A0008752A0008A72A0008A5
:102A0000A72A0008A72A0008A72A0008812A000888
:102A1000A72A0008A72A0008A72A0008A72A000852
:102A2000A72A0008A72A0008A72A0008A72A000842
:102A3000A72A0008A72A00088D2A0008A72A00084C
:102A4000A72A0008A72A0008A72A0008992A000830
:102A500000220821164802F05BFF25E00022202119
:102A6000134802F055FF1FE000220821114802F030
:102A70004FFF19E0002210210E4802F049FF13E039
:102A8000002220210B4802F043FF0DE0002210211C
:102A9000074802F03DFF07E000224FF400410548DF
:102AA00002F036FF00E000BF00BF0837BD4680BD22
:102AB000001802400010024080B582B000AF03460B
:102AC000FB71FB79053B302B00F2918001A252F89B
:102AD00023F000BF992B0008EF2B0008EF2B000814
:102AE000EF2B0008EF2B0008EF2B0008EF2B00085E
:102AF000EF2B0008EF2B0008EF2B0008EF2B00084E
:102B0000A52B0008EF2B0008EF2B0008EF2B000887
:102B1000EF2B0008B12B0008EF2B0008EF2B00086B
:102B2000EF2B0008EF2B0008EF2B0008EF2B00081D
:102B3000EF2B0008EF2B0008EF2B0008EF2B00080D
:102B4000BD2B0008EF2B0008EF2B0008EF2B00082F
:102B5000EF2B0008C92B0008EF2B0008EF2B000813
:102B6000EF2B0008EF2B0008EF2B0008EF2B0008DD
:102B7000EF2B0008EF2B0008EF2B0008EF2B0008CD
:102B8000D52B0008EF2B0008EF2B0008EF2B0008D7
:102B9000EF2B0008E12B000801220821164802F063
:102BA000B7FE25E001222021134802F0B1FE1FE00C
:102BB00001220821114802F0ABFE19E00122102188
:102BC0000E4802F0A5FE13E0012220210B4802F07E
:102BD0009FFE0DE001221021074802F099FE07E058
:102BE00001224FF40041054802F092FE00E000BFD0
:102BF00000BF0837BD4680BD0018024000100240EB
:102C000080B584B000AF0346FB71FB79053B302BE8
:102C100000F2C48001A252F823F000BFE12C0008AA
:102C20009D2D00089D2D00089D2D00089D2D00085C
:102C30009D2D00089D2D00089D2D00089D2D00084C
:102C40009D2D00089D2D0008FB2C00089D2D0008DF
:102C50009D2D00089D2D00089D2D0008172D0008B2
:102C60009D2D00089D2D00089D2D00089D2D00081C
:102C70009D2D00089D2D00089D2D00089D2D00080C
:102C80009D2D00089D2D0008332D00089D2D000866
:102C90009D2D00089D2D00089D2D00084D2D00083C
:102CA0009D2D00089D2D00089D2D00089D2D0008DC
:102CB0009D2D00089D2D00089D2D00089D2D0008CC
:102CC0009D2D00089D2D0008692D00089D2D0008F0
:102CD0009D2D00089D2D00089D2D0008832D0008C6
:102CE0004021314802F0FCFD0346012B02D10123B3
:102CF000FB7354E00023FB7351E04FF480512B48E9
:102D000002F0EEFD0346012B02D10123FB7346E0E6
:102D10000023FB7343E04FF40051244802F0E0FD30
:102D20000346012B02D10123FB7338E00023FB7320
:102D300035E080211C4802F0D3FD0346012B02D16F
:102D40000123FB732BE00023FB7328E04FF4804149
:102D5000164802F0C5FD0346012B02D10123FB7387
:102D60001DE00023FB731AE020210F4802F0B8FD9C
:102D70000346012B02D10123FB7310E00023FB73F8
:102D80000DE008210A4802F0ABFD0346012B02D1F9
:102D90000123FB7303E00023FB7300E000BFFB7B18
:102DA00018461037BD4680BD002802400020024072
:102DB0000014024080B582B000AF03460A46FB71A2
:102DC0001346BB71FB79422B2CD0422B3EDC402BAF
:102DD00002D0412B09D039E0BB79012B38D1012237
:102DE00001211F4802F094FD37E0BB79012B05D18A
:102DF000012210211B4802F08BFD2EE0BB79022B33
:102E000006D101224FF40051164802F081FD24E062
:102E1000BB79032B1ED101224FF48051114802F0DF
:102E200077FD1AE0BB79012B06D101224FF4006136
:102E30000C4802F06DFD10E0BB79022B0CD1012291
:102E40004FF48071084802F063FD06E000BF04E023
:102E500000BF02E000BF00E000BF0837BD4680BDF4
:102E600000100240000C02400018024080B582B001
:102E700000AF03460A46FB711346BB71FB79422B38
:102E80002CD0422B3EDC402B02D0412B09D039E024
:102E9000BB79012B38D1002201211F4802F038FDF7
:102EA00037E0BB79012B05D1002210211B4802F02D
:102EB0002FFD2EE0BB79022B06D100224FF40051EA
:102EC000164802F025FD24E0BB79032B1ED1002219
:102ED0004FF48051114802F01BFD1AE0BB79012B21
:102EE00006D100224FF400610C4802F011FD10E001
:102EF000BB79022B0CD100224FF48071084802F0FC
:102F000007FD06E000BF04E000BF02E000BF00E0F4
:102F100000BF0837BD4680BD00100240000C0240D3
:102F20000018024080B400AF72B600BFFEE7000098
:102F300080B483B000AF00237B60104B5B6C0F4A02
:102F400043F4804353640D4B5B6C03F480437B601C
:102F50007B6800233B60094B1B6C084A43F080539D
:102F60001364064B1B6C03F080533B603B6800BF4F
:102F70000C37BD465DF8047B704700BF0038024047
:102F800080B58AB000AF786007F1140300221A60A0
:102F90005A609A60DA601A617B681B68194A93422A
:102FA0002CD100233B61184B5B6C174A43F4801310
:102FB0005364154B5B6C03F480133B613B69002346
:102FC000FB60114B1B6B104A43F0200313630E4B45
:102FD0001B6B03F02003FB60FB684FF460737B61A5
:102FE0000223BB610023FB6103233B6205237B6259
:102FF00007F114031946054802F0C6FA00BF283746
:10300000BD4680BD0050014000380240001402401F
:1030100080B485B000AF78607B681B680B4A934230
:103020000DD10023FB600A4B5B6C094A43F001039E
:103030005364074B5B6C03F00103FB60FB6800BF4C
:103040001437BD465DF8047B704700BF00000140A7
:103050000038024080B58EB000AF786007F12403DD
:1030600000221A605A609A60DA601A617B681B68F5
:10307000504A93422DD100233B624F4B5B6C4E4A2A
:1030800043F0100353644C4B5B6C03F010033B6242
:103090003B6A0023FB61484B1B6B474A43F001032B
:1030A0001363454B1B6B03F00103FB61FB694FF49A
:1030B000C0637B620223BB620023FB6203233B638A
:1030C00007237B6307F1240319463C4802F05CFAAE
:1030D0006BE07B681B683A4A93422CD10023BB61AA
:1030E000354B1B6C344A43F400331364324B1B6C76
:1030F00003F40033BB61BB6900237B612E4B1B6B68
:103100002D4A43F0080313632B4B1B6B03F008039A
:103110007B617B6960237B620223BB620023FB62CD
:1031200003233B6307237B6307F1240319462548E8
:1031300002F02AFA39E07B681B68234A934234D1B3
:1031400000233B611C4B1B6C1B4A43F4802313641C
:10315000194B1B6C03F480233B613B690023FB602C
:10316000154B1B6B144A43F008031363124B1B6B84
:1031700003F00803FB60FB684FF440737B6202239B
:10318000BB620023FB6203233B6307237B6307F1DE
:10319000240319460B4802F0F7F9002201212720E9
:1031A00001F027F8272001F040F800BF3837BD466E
:1031B00080BD00BF00100140003802400000024006
:1031C00000440040000C02400048004080B400AFC2
:1031D000FEE780B400AFFEE780B400AFFEE780B446
:1031E00000AFFEE780B400AFFEE780B400AF00BFE1
:1031F000BD465DF8047B704780B400AF00BFBD469C
:103200005DF8047B704780B400AF00BFBD465DF839
:10321000047B704780B500AF00F0CCFE00BF80BDDE
:1032200080B500AF024803F00BFD00BF80BD00BFBA
:10323000D801002080B400AF01231846BD465DF8D8
:10324000047B704780B483B000AF78603960054B71
:1032500016221A604FF0FF3318460C37BD465DF852
:10326000047B7047B0AB002080B582B000AF7860BF
:103270004FF0FF317868FFF7E5FFFEE780B586B0D5
:1032800000AFF860B9607A6000237B610AE0AFF3B9
:1032900000800146BB685A1CBA60CAB21A707B69CA
:1032A00001337B617A697B689A42F0DB7B68184660
:1032B0001837BD4680BD80B586B000AFF860B960F4
:1032C0007A6000237B6109E0BB685A1CBA601B78F6
:1032D0001846AFF300807B6901337B617A697B68B4
:1032E0009A42F1DB7B6818461837BD4680BD80B432
:1032F00083B000AF78604FF0FF3318460C37BD46FF
:103300005DF8047B704780B483B000AF78603960AB
:103310003B684FF400525A60002318460C37BD46F4
:103320005DF8047B704780B483B000AF7860012300
:1033300018460C37BD465DF8047B704780B485B0F5
:1033400000AFF860B9607A60002318461437BD46B4
:103350005DF8047B7047000080B487B000AF7860F0
:10336000144A154BD31A7B617B693B61134B1B6875
:10337000002B02D1114B124A1A60104B1A687B685D
:1033800013443A699A4205D20E4B0C221A604FF050
:10339000FF3309E0094B1B68FB60084B1A687B6828
:1033A0001344064A1360FB6818461C37BD465DF897
:1033B000047B70470000032000040000B0050020DB
:1033C000C0AB0020B0AB002080B400AF064BD3F8F8
:1033D0008830054A43F47003C2F8883000BFBD4608
:1033E0005DF8047B704700BF00ED00E080B584B05D
:1033F00000AF08F019FAF860104B7B603B1D41F6F6
:1034000090721946F86807F06BF90346FB7297F95A
:103410000B30002B09D1FF21F86807F019FAF8608A
:103420000749F86808F080FA03E0F968012005F020
:103430003DFD00BF1037BD4680BD00BFC0A8000ADB
:103440004534000880B586B000AFF860B960134617
:10345000FB710121B86807F0F5FFBB685B8B43F097
:1034600040039AB2BB685A830C2005F01FFB3861F9
:103470003B69002B1FD03B6901221A703B69BA6877
:103480005A603B6900225A703B6900229A60396990
:10349000B86808F0D1F90E49B86808F0DFF90D49AD
:1034A000B86808F01FFA00220B49B86808F054FA0F
:1034B0000023FB7505E03969B86800F06FF9FF2358
:1034C000FB7597F9173018461837BD4680BD00BF09
:1034D000DD3400081D3600084136000880B588B08C
:1034E00000AFF860B9607A60FB70FB68002B05D113
:1034F000464BD322464947480FF09AFDFB68BB6113
:103500007B68002B16D1BB6903221A70BB699B68CC
:10351000002B04D1B969B86800F040F907E03E49D2
:10352000B86808F0BDF9B969B86800F0E1F800239F
:10353000FB7765E097F90330002B0BD07B68002BFD
:1035400005D0BB6900229A60786806F025FBFB78FD
:10355000FB7755E0BB691B78012B13D1BB690222B5
:103560001A70BB697A689A602B49B86808F098F9B4
:1035700097F91F307A68B969B86800F037F9002305
:10358000FB773DE0BB691B78022B18D1BB699B68B8
:10359000002B0AD1BB697A689A6097F91F307A6864
:1035A000B969B86800F022F906E0BB699B687B61E5
:1035B0007968786906F008FC0023FB7720E0BB6996
:1035C0001B78032B0ED17B681B891946B86807F05E
:1035D00055FABB6900229A60786806F0DDFA00238C
:1035E000FB770DE07B681B891946B86807F046FA3F
:1035F000BB6900229A60786806F0CEFA0023FB7758
:1036000097F91F3018462037BD4680BD6C3E010833
:10361000883E0108943E0108A136000880B584B0B8
:1036200000AF78600B46FB707B68FB60FB68002B8B
:1036300002D0F86805F0D4F800BF1037BD4680BD51
:1036400080B584B000AF786039607B68BB60BB68D0
:10365000002B17D0BB689B68002B08D00F49386837
:1036600008F01EF9B968386800F042F807E0BB6856
:103670001B78032B03D1B968386800F08FF800235A
:10368000FB7304E0386807F01FF8F323FB7397F926
:103690000F3018461037BD4680BD00BFA136000868
:1036A00080B586B000AFF860B9601346FB80FB6858
:1036B0007B617B6900225A707B699B68002B08D074
:1036C0000A49B86808F0ECF87969B86800F010F8B1
:1036D00007E07B691B78032B03D17969B86800F098
:1036E0005DF8002318461837BD4680BDA136000896
:1036F00080B586B000AF786039600023FB7539E093
:103700003B689B683B613B6959683B695A89012367
:1037100078680AF0D3FF0346FB7578680BF0B8FDB4
:1037200097F91730002B1DD13B695B89FB813B6901
:103730001A683B689A603B689B68002B04D03B6822
:103740009B68184606F0C8FA386906F025FA034661
:103750007B737B7B002BF7D0FB891946786807F0D9
:103760008DF907E097F91730B3F1FF3F02D13B68BD
:103770003A699A6097F91730002B0BD13B689B6828
:10378000002B07D03B689B685A897B68B3F864308C
:103790009A42B5D900BF1837BD4680BD80B582B00A
:1037A00000AF786039600021786808F045F80021A2
:1037B000786808F075F80021786808F04FF8002163
:1037C000786808F08FF800220021786808F0C4F8C3
:1037D0003B68002B02D0386805F002F8786806F0E4
:1037E00089FE00BF0837BD4680BD000080B588B0A7
:1037F00000AFF860B9607A60FB70FB685B683B61A2
:10380000FB681B8BFB8307F1100318460EF06CFB63
:10381000B861BB689B68002B26D0BB689B681B897E
:10382000642B06D8BB689B681B891A46104B1A602C
:1038300002E00F4B64221A60BB6898680C4B1B684F
:103840009AB200230B4906F0A1FB0346FB82FB8AD8
:10385000002B09D0064B1A68BB680649F86800F0CF
:103860000BF8786806F098F900BF2037BD4680BD98
:10387000840200202002002080B584B000AFF860F0
:10388000B9607A603B60BB681B78FB2B40F091808D
:10389000BB6801331B78FB2B40F08B80BB680A337D
:1038A0001B78BF2B40F05C81BB680B331B78BF2BB0
:1038B00040F0568164220021A0480FF01EFC9F4B6F
:1038C000FA221A709D4BFA225A709C4B1D229A7054
:1038D0009A4BAF22DA76994BAF221A77BB68043342
:1038E0001B78012B40F03C81944B0122DA70BB68BD
:1038F0009A79934B1A70BB68DA79924B1A70904B95
:103900001A788E4B1A728F4B1A788C4B5A728B4BDB
:1039100000229A724FF4FA60FDF734FA884B1B7854
:10392000884A127811461846FDF744FA0346022BDE
:103930000BD1834B1A78814B1A72824B1A787F4BCA
:103940005A727E4B02229A722CE07D4B1B787D4A84
:10395000127811461846FDF72DFA0346012B0BD1BC
:10396000774B1A78754B1A72764B1A78734B5A72DA
:10397000724B01229A7215E0714B1B78714A1278D2
:1039800011461846FDF716FA0346032B0AD16C4B75
:103990001A786A4B1A726B4B1A78684B5A72674BDB
:1039A00003229A723B681D226449F86800F0DEF831
:1039B000D6E0BB681B78AB2B40F0D380BB680133EB
:1039C0001B78AB2B40F0CD80BB681A331B78BA2B29
:1039D00040F0C780BB681B331B78BA2B40F0C18016
:1039E0006422002158480FF088FB574BAB221A7015
:1039F000554B0B225A70544B0C229A70524BBA22E0
:103A00009A72514B0A22DA72BB6803331B78012B7E
:103A100049D14D4B0122DA70BB681A794B4B1A70B1
:103A2000BB685A794A4B1A70484B1B78484A12783F
:103A300011461846FEF76EFB0346022B07D1434B97
:103A40001A78414B1A71404B02225A7124E03F4BC5
:103A50001B783F4A127811461846FEF75BFB034677
:103A6000032B07D1394B1A78374B1A71364B062284
:103A70005A7111E0354B1B78354A127811461846B9
:103A8000FEF748FB0346012B06D1304B1A782E4B2C
:103A90001A712D4B01225A713B680C222A49F86891
:103AA00000F064F85DE0BB6803331B78022B16D18D
:103AB000254B0222DA70BB6804331B78362B50D1B9
:103AC000BB6808331B781B021AB2BB6809331B782A
:103AD0001BB213431BB29AB21E4B1A8041E0BB6863
:103AE00003331B78032B20D1BB681A791A4B1A7049
:103AF000BB689A79194B1A70174B1B78174A1278C2
:103B000011461846FEF744FE0346002B03D00E4B29
:103B10000322DA7002E00C4B0022DA703B680C22C0
:103B20000949F86800F022F81BE0BB6803331B78F2
:103B3000042B16D1044B0422DA7012E08802002014
:103B4000EC020020ED020020B80400201C0500203B
:103B50001D050020000000201E0500201F0500207C
:103B600000BF00BF1037BD4680BD00BF80B586B026
:103B700000AFF860B9607A603B600C2004F096FFFB
:103B80007861BB68002B35D07B68002B32D07B6915
:103B9000002B2FD03B681A787B691A703B685A68F3
:103BA0007B695A603B689A687B699A607B699B680D
:103BB000BA685A603B689B681A893B689B685B8956
:103BC000D31A99B27B689AB27B699B680A4492B215
:103BD0001A817B699B687A6892B25A817969F86820
:103BE000FFF786FD3B689B68184605F0D5FF7869AE
:103BF00004F0F6FD00BF1837BD4680BDDFF834D0B5
:103C0000FFF7E2FB0C480D490D4A002302E0D458AF
:103C1000C4500433C4188C42F9D30A4A0A4C002316
:103C200001E013600432A242FBD30FF0B5FAFCF7B7
:103C3000EBFC704700000320000000208C000020F7
:103C4000906A01088C000020C0AB0020FEE780B421
:103C500083B000AF786039607B68002B0BD03B6885
:103C6000DB68002B07D03B689B68002B03D03B68C8
:103C70001B69002B02D14FF0FF3314E03B681A6838
:103C80007B689A603B685A687B68DA603B68DA68F0
:103C90007B685A613B689A687B681A613B681A695D
:103CA0007B689A61002318460C37BD465DF8047B9B
:103CB000704780B586B000AF78600023FB600023BA
:103CC000BB6000237B6100233B617B685B68002B4A
:103CD0007CD17B689B68002B02D07B689B689847EF
:103CE0007B6820221A6000237B611CE07B685B6993
:103CF00007F108021921786998470346002B03DA77
:103D00006FF004033B610BE0BB6803F01F037A69AB
:103D10009A4205D17B687A691A6000233B6105E00D
:103D20007B6901337B617B691F2BDFD97B681B6853
:103D30001F2B02D96FF002033B613B69002B45D179
:103D40007B681B697A6810684FF40042002198472D
:103D50000346002B37DB7B685B697A68106807F1E4
:103D60000802002198470346002B28DB7B689B69EB
:103D700098470346FB601CE07B689B6998470346B5
:103D80001A46FB68D31AB3F5FA7F0ED87B685B69D5
:103D90007A68106807F10802002198470346002B53
:103DA00007DA6FF004033B6110E06FF001033B6141
:103DB0000CE0BB6803F40043002BDDD106E06FF09C
:103DC00004033B6102E06FF003033B613B69002B9E
:103DD00012D17B689B6998470346FB6000BF7B68F4
:103DE0009B69984703461A46FB68D31AB3F5FA6FE6
:103DF000F5D97B6801225A603B6918461837BD46E1
:103E000080BD80B584B000AF78600023FB607B6824
:103E10005B697A68106807F10C0201219847034634
:103E2000002B02DA6FF004036EE07B685B697A684E
:103E3000106807F10C02012198470346002B02DAB3
:103E40006FF0040360E0FB6803F00403002B01D172
:103E5000012359E07B685B697A68106807F10C02FE
:103E6000002198470346002B02DA6FF004034BE071
:103E7000FB6803F48053002B1BD1FB6803F4005351
:103E8000002B06D0FB6803F48073002B01D00223C3
:103E90003AE0FB6803F40053002B01D0032333E026
:103EA000FB6803F48073002B01D004232CE005236E
:103EB0002AE07B685B697A68106807F10C021021C0
:103EC00098470346002B02DA6FF004031CE0FB68FE
:103ED00003F01003002B01D1062315E0FB6803F06B
:103EE0000603042B01D102230EE0FB6803F0060356
:103EF000002B01D1032307E0FB6803F00603062B28
:103F000001D1042300E0052318461037BD4680BDCB
:103F100080B500AF0E4B1B680D4A43F4007313606D
:103F20000B4B1B680A4A43F480631360084B1B6801
:103F3000074A43F480731360032000F04FF90F2009
:103F400000F008F8FEF7F4FF0023184680BD00BF1C
:103F5000003C024080B582B000AF7860124B1A6816
:103F6000124B1B7819464FF47A73B3FBF1F3B2FB93
:103F7000F3F3184600F067F90346002B01D0012344
:103F80000EE07B680F2B0AD8002279684FF0FF30D3
:103F900000F02FF9064A7B681360002300E001233C
:103FA00018460837BD4680BD040000200C000020E4
:103FB0000800002080B400AF064B1B781A46064B61
:103FC0001B681344044A136000BFBD465DF8047BC0
:103FD000704700BF0C000020B405002080B400AF83
:103FE000034B1B681846BD465DF8047B704700BF55
:103FF000B405002080B584B000AF7860FFF7EEFF15
:10400000B8607B68FB60FB68B3F1FF3F05D00A4BEB
:104010001B781A46FB681344FB6000BFFFF7DEFF06
:104020000246BB68D31AFA689A42F7D800BF00BFAD
:104030001037BD4680BD00BF0C00002080B485B0A5
:1040400000AF78607B6803F00703FB600C4BDB6814
:10405000BB60BA684FF6FF031340BB60FB681A02EF
:10406000BB68134343F0BF6343F40033BB60044AAF
:10407000BB68D36000BF1437BD465DF8047B704752
:1040800000ED00E080B400AF044BDB681B0A03F0D6
:1040900007031846BD465DF8047B704700ED00E05D
:1040A00080B483B000AF0346FB7197F90730002B53
:1040B0000BDBFB7903F01F02074997F907305B0917
:1040C000012000FA02F241F8232000BF0C37BD4660
:1040D0005DF8047B704700BF00E100E080B483B06E
:1040E00000AF03463960FB7197F90730002B0ADBFC
:1040F0003B68DAB20C4997F907301201D2B20B448F
:1041000083F800230AE03B68DAB20849FB7903F040
:104110000F03043B1201D2B20B441A7600BF0C37D6
:10412000BD465DF8047B704700E100E000ED00E073
:1041300080B489B000AFF860B9607A60FB6803F0C2
:104140000703FB61FB69C3F10703042B28BF0423AA
:10415000BB61FB690433062B02D9FB69033B00E01A
:1041600000237B614FF0FF32BB6902FA03F3DA43AD
:10417000BB681A407B699A404FF0FF317B6901FAB6
:1041800003F3D9437B680B40134318462437BD46DD
:104190005DF8047B7047000080B582B000AF7860A6
:1041A0007B68013BB3F1807F01D301230FE00A4A12
:1041B0007B68013B53600F214FF0FF30FFF78EFF0C
:1041C000054B00229A60044B07221A600023184610
:1041D0000837BD4680BD00BF10E000E080B582B06A
:1041E00000AF78607868FFF729FF00BF0837BD4649
:1041F00080BD80B586B000AF0346B9607A60FB73BE
:1042000000237B61FFF73EFF78617A68B9687869BF
:10421000FFF78EFF024697F90F3011461846FFF759
:104220005DFF00BF1837BD4680BD80B582B000AFCE
:104230000346FB7197F907301846FFF731FF00BFBF
:104240000837BD4680BD80B582B000AF7860786821
:10425000FFF7A2FF034618460837BD4680BD80B56C
:1042600084B000AF78607B689B6DFB60FFF7B6FEA3
:10427000B8607B6893F83530DBB2022B08D07B68DE
:1042800080225A657B68002283F83420012352E0A3
:104290007B681B681A687B681B6822F016021A602C
:1042A0007B681B685A697B681B6822F080025A6130
:1042B0007B681B6C002B03D17B689B6C002B07D0A9
:1042C0007B681B681A687B681B6822F008021A600A
:1042D0007B681B681A687B681B6822F001021A6001
:1042E00013E0FFF77BFE0246BB68D31A052B0CD9FF
:1042F0007B6820225A657B68032283F835207B681F
:10430000002283F83420032315E07B681B681B68B8
:1043100003F00103002BE4D17B68DB6D3F229A4060
:10432000FB689A607B68012283F835207B68002255
:1043300083F83420002318461037BD4680BD80B472
:1043400083B000AF78607B6893F83530DBB2022B26
:1043500004D07B6880225A6501230CE07B6805222B
:1043600083F835207B681B681A687B681B6822F01D
:1043700001021A60002318460C37BD465DF8047B25
:104380007047000080B584B000AF78607B68002B78
:1043900001D101236CE07B68D3F88430002B06D177
:1043A0007B682322C3F88420786803F067FE00232B
:1043B000BB60314B5B6C304A43F4804353642E4BFB
:1043C0005B6C03F48043BB60BB682C4B5B682B4A7F
:1043D00023F400035360294B5A687B689B68274984
:1043E00013434B60254B5B687B681B6803F5805368
:1043F0001B687A68126843F0010302F5805213606B
:10440000FFF7ECFDF86011E0FFF7E8FD0246FB68FE
:10441000D31AB3F5FA7F09D97B680422C3F8882040
:104420007B68E022C3F88420012321E07B681B68BD
:1044300003F580531B6803F00103002BE4D1786877
:1044400000F0FCFD786800F0A3FE786800F0F9FE4B
:104450007B685B681A460021786800F061FE7B6823
:104460000022C3F888207B681022C3F88420002330
:1044700018461037BD4680BD003802400038014064
:1044800080B584B000AF78607B68D3F88430102B9F
:1044900050D17B682322C3F884207B680422DA662B
:1044A000786800F0FDF97B681B681A687B681B68F8
:1044B00042F008021A607B681B681B68FB600120E1
:1044C000FFF798FD7B681B68FA681A607B681B68B9
:1044D0001A687B681B6842F004021A607B681B68DC
:1044E0001B68FB600120FFF785FD7B681B68FA688D
:1044F0001A60786800F042FC7B681B6803F5805303
:104500009B697A68126843F4005302F58052936104
:104510007B681B6803F580539B697A68126843F0D7
:10452000020302F5805293617B682322C3F8842042
:10453000002300E0012318461037BD4680BD80B53A
:1045400084B000AF78607B68D3F88430232B4AD1E5
:104550007B682322C3F884207B681B6803F58053A3
:104560009B697A68126823F4005302F580529361C4
:104570007B681B6803F580539B697A68126823F097
:10458000020302F5805293617B681B681A687B689E
:104590001B6822F004021A607B681B681B68FB60C2
:1045A0000120FFF727FD7B681B68FA681A607868AE
:1045B00000F0E4FB7B681B681A687B681B6822F0CC
:1045C00008021A607B681B681B68FB600120FFF70C
:1045D00011FD7B681B68FA681A607B681022C3F8BB
:1045E0008420002300E0012318461037BD4680BD1B
:1045F00080B586B000AFF860B9607A60BB68002B08
:1046000009D1FB68D3F8883043F00102FB68C3F896
:10461000882001237CE0FB68D3F88430232B76D1FB
:104620000022B968F86800F079FE0346002B09D033
:10463000FB68D3F8883043F00202FB68C3F8882097
:10464000012365E0BFF34F8F00BFFB689A6AFB68E8
:10465000063253F822307B61FB689B6A5A1CFB6868
:104660009A62FB689B6A032B04D9FB689B6A1A1F3A
:10467000FB689A62FB68996AFB681A68FB680631F6
:1046800053F8213002F580525360FFF7A7FC3861E0
:1046900037E0FB681B6803F580535B6903F4005344
:1046A000002B11D0FB68D3F8883043F00802FB6878
:1046B000C3F88820FB681B6803F580535A69FB68C0
:1046C000C3F88C20012323E07B68B3F1FF3F18D0AF
:1046D000FFF784FC02463B69D31A7A689A4202D3F8
:1046E0007B68002B0DD1FB68D3F8883043F00402BF
:1046F000FB68C3F888207B694FF040521A600123A1
:1047000006E07B691B68002BC3DB002300E001236C
:1047100018461837BD4680BD80B588B000AF7860B8
:10472000396000237B610023FB733B68002B09D1B8
:104730007B68D3F8883043F001027B68C3F8882097
:104740000123A8E07B68D3F88430232B01D0012318
:10475000A1E07B68DB6DFB617B68FA69123253F87C
:104760002230BB617B68DB6EC3F10403BB606AE08F
:10477000BB691B6803F48073002B07D0BB69DA693F
:104780007B689A67BB699A697B685A67BB691B68D3
:1047900003F40073002B03D17B68DB6F002B40D048
:1047A000BB691B6803F40073002B05D07B680022F3
:1047B0001A667B6800225A667B685B693B61BB694D
:1047C0001B6803F48073002B0CD0BB691B681B0CA7
:1047D000C3F30D03043B3B61BB691A687B681A672E
:1047E0000123FB73BB699A68BB691A627B6803F19A
:1047F0007C007B6803F18001BB691B6A1A463B6938
:104800009BB203F02BFE7B681B6E5A1C7B681A66FA
:104810007B685A6E3B691A447B685A66BB69002202
:104820001A62FB690133FB61FB69032B02D9FB6947
:10483000043BFB617B68FA69123253F82230BB619A
:104840007B6901337B61BB691B68002B06DB7A69DE
:10485000BB689A4202D2FB7B002B89D07B68DA6E60
:104860007B691A447B68DA667B68DB6E002B02D0BA
:10487000786800F015F87B68FA69DA65FB7B012B34
:1048800008D17B68DA6F3B681A607B680022DA67C0
:10489000002300E0012318462037BD4680BD0000FC
:1048A00080B588B000AF78600023BB600123FB7443
:1048B0007B689B6EFB617B68FA69123253F8223089
:1048C0007B617B68DB6EBB613DE07B691B6A002B13
:1048D00012D107F10803184603F090FDBB68002BC6
:1048E00002D10023FB7407E0BB681A467B691A6299
:1048F000BB681A467B699A60FB7C002B23D07B68DF
:104900009B6D002B03D17B69244A5A6003E07B69CD
:104910004FF48C425A607B691B6843F000427B690C
:104920001A60FB690133FB61FB69032B02D9FB6948
:10493000043BFB617B68FA69123253F822307B61D9
:10494000BB69013BBB61BB69002B02D0FB7C002B28
:10495000BBD17B68DB6EBA699A421AD0FB6901331E
:1049600003F00303FB60BFF35F8F00BF7B6819692F
:10497000FA6813469B001344DB00CA187B681B6867
:1049800003F580539A607B68FA699A667B68BA6916
:10499000DA6600BF2037BD4680BD00BF00460080FC
:1049A00080B586B000AFF860B9607A603B60FB68A4
:1049B0001B681B697B617B6903F01C037B61BB681F
:1049C000DB029BB27A6913437B617B689B0103F432
:1049D000F8637A6913437B617B6923F002037B618F
:1049E0007B6943F001037B61FB681B687A691A618C
:1049F000FFF7F4FA38610DE0FFF7F0FA02463B6981
:104A0000D31AB3F5803F01D3012310E0FB681B6884
:104A10001B697B617B6903F00103002BECD1FB6810
:104A20001B685B699BB21A463B681A6000231846F4
:104A30001837BD4680BD80B586B000AFF860B9605C
:104A40007A603B60FB681B681B697B617B6903F0D4
:104A50001C037B61BB68DB029BB27A6913437B61F9
:104A60007B689B0103F4F8637A6913437B617B697C
:104A700043F002037B617B6943F001037B613B6888
:104A80009AB2FB681B685A61FB681B687A691A61F5
:104A9000FFF7A4FA38610DE0FFF7A0FA02463B6980
:104AA000D31AB3F5803F01D3012309E0FB681B68EB
:104AB0001B697B617B6903F00103002BECD10023B0
:104AC00018461837BD4680BD80B483B000AF78600B
:104AD00039603B68002B01D10123D9E07B681B685A
:104AE0001B6803F01003002B14BF01230023DBB26B
:104AF0001A463B6883F828207B681B681B6803F014
:104B000060023B685A627B681B681B6803F4007391
:104B1000002B0CBF01230023DBB21A463B6883F84D
:104B200020207B681B681B6803F48033002B14BFB4
:104B300001230023DBB21A463B68DA777B681B68E7
:104B40001B6803F40053002B0CBF01230023DBB2CE
:104B50001A463B689A777B681B681B6803F480538E
:104B6000002B14BF01230023DBB21A463B681A77DF
:104B70007B681B681B6803F400623B689A617B6872
:104B80001B681B6803F480423B685A617B681B68A2
:104B90001B6803F48003002B0CBF01230023DBB24E
:104BA0001A463B685A747B681B681B6803F4000351
:104BB000002B0CBF01230023DBB21A463B681A749A
:104BC0007B681B681B6803F08003002B14BF012364
:104BD0000023DBB21A463B68DA737B681B681B68EC
:104BE00003F460223B689A607B681B681B6803F4CF
:104BF0008063002B14BF01230023DBB21A463B68FD
:104C00001A717B681B689B6903F00203002B14BFB9
:104C100001230023DBB21A463B6883F854207B68EB
:104C20001B689B6903F08003002B0CBF012300234A
:104C3000DBB21A463B6883F84C207B681B689B6993
:104C400003F030023B681A657B681B689B691B0C8C
:104C50009AB23B689A647B681B689B6903F0040303
:104C6000002B14BF01230023DBB21A463B6883F8F4
:104C700056207B681B689B6903F00803002B14BF58
:104C800001230023DBB21A463B6883F8552000233A
:104C900018460C37BD465DF8047B704780B582B07E
:104CA00000AF786039603B68002B01D101230BE035
:104CB0007B68D3F88430102B05D13968786800F010
:104CC00083F8002300E0012318460837BD4680BD65
:104CD00080B584B000AF78607B681B681B69FB609F
:104CE000FB6823F01C03FB6001F0A0FAB860BB680E
:104CF0001D4A934208D9BB681C4A934204D8FB68FA
:104D000043F00803FB6027E0BB68184A934208D9C8
:104D1000BB68174A934204D2FB6843F00C03FB6064
:104D20001AE0BB68124A934203D3BB68114A93420C
:104D300011D9BB680F4A934208D9BB680E4A934207
:104D400004D8FB6843F00403FB6005E0FB6843F014
:104D50001003FB6000E000BF7B681B68FA681A6103
:104D600000BF1037BD4680BDFF2C3101BF0E1602BB
:104D700000879303FFE0F5057FD1F00880B584B08C
:104D800000AF78600023FB607B681B6803F58053ED
:104D90009B697A68126843F4801302F5805293612C
:104DA0007B681B6803F580539B69FB600120FFF75C
:104DB00021F97B681A68FB6802F58052936100BF95
:104DC0001037BD4680BD000080B584B000AF78606C
:104DD00039607B681B681B68FB60FA68514B1340A5
:104DE000FB603B681B7C002B02D14FF4000200E00B
:104DF00000223B685B7C002B02D14FF4800300E073
:104E000000231A433B689B681A433B68DB7F1B0403
:104E10001A433B685B6913433A68927F002A02D1C8
:104E20004FF4005200E000221A433B681B7F1B0333
:104E30001A433B689B691A433B681B799B021343E7
:104E40003A6892F82020002A02D14FF4007200E064
:104E500000221A433B68DB7BDB011A433B685B6A39
:104E60001A433B6893F828301B011343FA68134335
:104E7000FB607B681B68FA681A607B681B681B68AC
:104E8000FB600120FFF7B6F87B681B68FA681A60C0
:104E90007B681B689B69FB60FA684FF6417313409F
:104EA000FB603B689B6C1B043A6892F84C20002A1C
:104EB00001D1802200E000221A433B681B6D13439E
:104EC0003A6892F85520012A01D1082200E0002218
:104ED00013433A6892F85620012A01D1042200E0D7
:104EE000002213433A6892F85420012A01D1022289
:104EF00000E000221343FA681343FB607B681B68E1
:104F0000FA689A617B681B689B69FB600120FFF768
:104F100071F87B681B68FA689A6100BF1037BD465C
:104F200080BD00BF0F8120FF80B584B000AF7860E6
:104F300039607B681B6803F580539B69FB60FA68E6
:104F40003D4B1340FB603B681B7B002B02D14FF0B5
:104F5000806200E000223B685B7B5B0613433A689B
:104F6000527F002A02D14FF4801200E000221A433F
:104F70003B689B7B5B051A433B685B691A433B6854
:104F80001B7FDB011A433B689B7F9B011A433B68F5
:104F90001B6A1A433B6893F824309B001343FA685A
:104FA0001343FB607B681B6803F580531A46FB685C
:104FB00093617B681B6803F580539B69FB6001204C
:104FC000FFF718F87B681B6803F580531A46FB68E7
:104FD00093613B681B795A063B689B681A433B68A0
:104FE0009B691A433B681B691A433B6893F8253059
:104FF000DB011A433B689B6A9B001A433B681B68B2
:1050000013437A68126843F4000302F58052136078
:105010007B681B6803F580531B68FB600120FEF76B
:10502000E9FF7B681B6803F580531A46FB68136031
:1050300000BF1037BD4680BD233FDEF880B5A6B067
:1050400000AF7860012387F84430012387F84530AA
:105050000023FB63002387F85330012387F8523085
:10506000002387F85030012387F83830002387F871
:105070005430002387F843300023BB65002387F8B2
:105080005C300023FB67002387F880300023C7F8DB
:105090008430002387F88A30002387F888304FF463
:1050A0008043BB644FF40063FB64002387F88930BE
:1050B00007F1340319467868FFF786FE01233B7534
:1050C00001237B75012387F825300123BB7500235D
:1050D000FB61002387F82430002387F82630002363
:1050E000BB62012387F82C3001233B734FF48033DC
:1050F0003B614FF480033B624FF40053BB610123DB
:1051000087F82D3000233B630023BB6007F10803C1
:1051100019467868FFF708FF00BF9837BD4680BD85
:1051200080B487B000AFF860B9607A607B680533FF
:105130001B781B027A680432127813437B61BA68C9
:10514000114B13441A467B6913607B6803331B7849
:105150001A067B6802331B781B041A437B680133F1
:105160001B781B0213437A68127813437B61BA6879
:10517000064B13441A467B69136000BF1C37BD46BB
:105180005DF8047B704700BF4080024044800240CD
:1051900080B485B000AF78600023FB603EE07B68A0
:1051A000D968FA6813469B001344DB000B44BB60CC
:1051B000BB6800221A60BB6800225A60BB680022EC
:1051C0009A60BB680022DA60B9687B68FA680632C8
:1051D00043F82210BB681B6843F48012BB681A6056
:1051E000FB68022B0CD87B68D968FB685A1C1346F5
:1051F0009B001344DB000B441A46BB68DA6004E0F2
:105200007B68DB681A46BB68DA60BB681B6843F4DE
:105210004002BB681A60FB680133FB60FB68032B2C
:10522000BDD97B6800229A627B68DA687B681B685C
:1052300003F580531A6100BF1437BD465DF8047B47
:10524000704780B485B000AF78600023FB6046E013
:105250007B681969FA6813469B001344DB000B4412
:10526000BB60BB6800221A60BB6800225A60BB6842
:1052700000229A60BB680022DA60BB6800221A62D2
:10528000BB6800225A62BB684FF000421A60BB68DC
:105290004FF48C425A60BB685B6823F00042BB68E5
:1052A0005A60B9687B68FA68123243F82210FB68CA
:1052B000022B0CD87B681969FB685A1C13469B00AB
:1052C0001344DB000B441A46BB68DA6004E07B68D9
:1052D0001B691A46BB68DA60FB680133FB60FB6838
:1052E000032BB5D97B680022DA657B6800221A6639
:1052F0007B6800229A667B680022DA667B6800225F
:105300009A657B681A697B681B6803F58053DA60CD
:1053100000BF1437BD465DF8047B704780B48DB084
:1053200000AFF860B9607A60FB6818337B617B6915
:105330001B69FB627B691B693B6100237B627B69A4
:10534000FA6A53F822303B62BB689B68FB6100231A
:10535000BB613B6A1B6803F00043B3F1004F07D009
:105360007A69FB6A04339B0013445B68002B01D00D
:10537000022303E17B6A01337B62FB691B681A46E7
:105380003B6A9A603B6A5B6823F4FF5323F01F0378
:10539000FA6952681A433B6A5A60BB681B6803F09B
:1053A0000103002B08D03B6A1B6823F44002BB6852
:1053B0005B691A433B6A1A60BB681B6803F02003F1
:1053C000002B08D03B6A1B6823F04062BB681B6956
:1053D0001A433B6A1A60BB681B6803F00403002B86
:1053E00005D03B6A1B6843F080023B6A1A603B6A47
:1053F0001B6843F080523B6A1A60BFF35F8F00BFA7
:105400003B6A1B6843F000423B6A1A6084E03B6AD7
:105410001B6823F000523B6A1A607B68002B06D0A1
:105420003B6A1B6843F080423B6A1A6005E03B6AB6
:105430001B6823F080423B6A1A60FB6A0133FB62FF
:10544000FB6A032B02D9FB6A043BFB627B69FA6AA5
:1054500053F822303B623B6A1B6823F080523B6A60
:105460001A603B6A1B6803F00043B3F1004F07D09A
:105470007A69FB6A04339B0013445B68002B29D0D4
:105480003B69FB627B69FA6A53F822303B62002376
:10549000BB6219E0BFF35F8F00BF3B6A1B6823F05C
:1054A00000423B6A1A60FB6A0133FB62FB6A032B12
:1054B00002D9FB6A043BFB627B69FA6A53F822302B
:1054C0003B62BB6A0133BB62BA6A7B6A9A42E1D330
:1054D000022353E07B6A01337B62FB699B68FB61BB
:1054E000FB691B681A463B6A9A603B6A5B6823F457
:1054F000FF5323F01F03FA6952681A433B6A5A604C
:10550000BB690133BB61BFF35F8F00BF3B6A1B68A0
:1055100043F000423B6A1A60FB699B68002B7FF4F2
:1055200076AF7B68002B06D03B6A1B6843F0804255
:105530003B6A1A6005E03B6A1B6823F080423B6AC5
:105540001A603B6A1B6843F000523B6A1A607B6931
:105550005A6A7969FB6A04339B000B445A607B6981
:10556000FA6A1A6172B600BF7B699A6ABB69134412
:105570005A1C7B699A6262B600BF00231846343712
:10558000BD465DF8047B704780B489B000AF786099
:10559000396000237B6100233B610023BB61002352
:1055A000FB6177E10122FB6902FA03F37B613B684F
:1055B0001B687A6913403B613A697B699A4240F003
:1055C00066813B685B6803F00303012B05D03B68F1
:1055D0005B6803F00303022B30D17B689B68BB61DF
:1055E000FB695B00032202FA03F3DB43BA69134051
:1055F000BB613B68DA68FB695B0002FA03F3BA69D6
:105600001343BB617B68BA699A607B685B68BB6166
:105610000122FB6902FA03F3DB43BA691340BB6161
:105620003B685B681B0903F00102FB6902FA03F3A4
:10563000BA691343BB617B68BA695A603B685B68AF
:1056400003F00303032B17D07B68DB68BB61FB69A6
:105650005B00032202FA03F3DB43BA691340BB6128
:105660003B689A68FB695B0002FA03F3BA6913436B
:10567000BB617B68BA69DA603B685B6803F003036F
:10568000022B23D1FB69DA087B68083253F82230F9
:10569000BB61FB6903F007039B000F2202FA03F3CF
:1056A000DB43BA691340BB613B681A69FB6903F0CD
:1056B00007039B0002FA03F3BA691343BB61FB695A
:1056C000DA087B680832B96943F822107B681B68E6
:1056D000BB61FB695B00032202FA03F3DB43BA6997
:1056E0001340BB613B685B6803F00302FB695B002E
:1056F00002FA03F3BA691343BB617B68BA691A60A3
:105700003B685B6803F44033002B00F0C08000234B
:10571000FB60664B5B6C654A43F480435364634BA8
:105720005B6C03F48043FB60FB68614AFB699B0888
:10573000023352F82330BB61FB6903F003039B0083
:105740000F2202FA03F3DB43BA691340BB617B68A3
:10575000584A934237D07B68574A934231D07B688E
:10576000564A93422BD07B68554A934225D07B689A
:10577000544A93421FD07B68534A934219D07B68A6
:10578000524A934213D07B68514A93420DD07B68B2
:10579000504A934207D07B684F4A934201D1092374
:1057A00012E00A2310E008230EE007230CE0062392
:1057B0000AE0052308E0042306E0032304E00223B3
:1057C00002E0012300E00023FA6902F003029200E4
:1057D0009340BA691343BB613549FB699B080233A7
:1057E000BA6941F823203D4B9B68BB613B69DB43B1
:1057F000BA691340BB613B685B6803F48013002BFC
:1058000003D0BA693B691343BB61344ABB699360F7
:10581000324BDB68BB613B69DB43BA691340BB6158
:105820003B685B6803F40013002B03D0BA693B6943
:105830001343BB61294ABB69D360284B5B68BB61DA
:105840003B69DB43BA691340BB613B685B6803F4A7
:105850000033002B03D0BA693B691343BB611F4A75
:10586000BB6953601D4B1B68BB613B69DB43BA6975
:105870001340BB613B685B6803F48033002B03D0AB
:10588000BA693B691343BB61144ABB691360FB6986
:105890000133FB61FB690F2B7FF684AE00BF00BFB5
:1058A0002437BD465DF8047B704700BF00380240D6
:1058B000003801400000024000040240000802409D
:1058C000000C024000100240001402400018024088
:1058D000001C02400020024000240240003C014025
:1058E00080B485B000AF78600B467B807B681A6916
:1058F0007B881340002B02D00123FB7301E00023BF
:10590000FB73FB7B18461437BD465DF8047B70477C
:1059100080B483B000AF78600B467B8013467B7009
:105920007B78002B03D07A887B689A6103E07B88C0
:105930001A047B689A6100BF0C37BD465DF8047B92
:105940007047000080B582B000AF00237B60002369
:105950003B60204B1B6C1F4A43F0805313641D4B6C
:105960001B6C03F080533B603B681B4B01221A60A9
:10597000FEF734FB786009E0FEF730FB02467B68F7
:10598000D31AB3F57A7F01D903231FE0134B5B6869
:1059900003F48033B3F5803FEED1114B01221A603E
:1059A000FEF71CFB786009E0FEF718FB02467B68F7
:1059B000D31AB3F57A7F01D9032307E0074B5B685D
:1059C00003F40033B3F5003FEED100231846083747
:1059D000BD4680BD0038024040000E4200700040CD
:1059E00044000E4280B586B000AF78607B68002B23
:1059F00001D1012367E27B681B6803F00103002BE0
:105A000075D0884B9B6803F00C03042B0CD0854B9E
:105A10009B6803F00C03082B12D1824B5B6803F4E4
:105A20008003B3F5800F0BD17E4B1B6803F400336A
:105A3000002B5BD07B685B68002B57D1012342E2CF
:105A40007B685B68B3F5803F06D1764B1B68754A6F
:105A500043F4803313601DE07B685B68B3F5A02FCF
:105A60000CD1704B1B686F4A43F4802313606D4B5D
:105A70001B686C4A43F4803313600BE0694B1B686E
:105A8000684A23F480331360664B1B68654A23F42D
:105A9000802313607B685B68002B13D0FEF79EFAAF
:105AA000386108E0FEF79AFA02463B69D31A642B84
:105AB00001D9032307E25B4B1B6803F40033002B7F
:105AC000F0D014E0FEF78AFA386108E0FEF786FAB3
:105AD00002463B69D31A642B01D90323F3E1514BEE
