:020000040800F2
:1000000000000320AD0B0008A1090008A7090008A3
:10001000AD090008B3090008B90900080000000094
:10002000000000000000000000000000BF09000800
:10003000CD09000800000000DB090008E9090008FC
:10004000FD0B0008FD0B0008FD0B0008FD0B000870
:10005000FD0B0008FD0B0008FD0B0008FD0B000860
:10006000FD0B0008FD0B0008FD0B0008FD0B000850
:10007000FD0B0008FD0B0008FD0B0008FD0B000840
:10008000FD0B0008FD0B0008FD0B0008FD0B000830
:10009000FD0B0008FD0B0008FD0B0008FD0B000820
:1000A000FD0B0008FD0B0008FD0B0008FD0B000810
:1000B000FD0B0008FD0B0008FD0B0008FD0B000800
:1000C000FD0B0008FD0B0008FD0B0008FD0B0008F0
:1000D000FD0B0008FD0B0008FD0B0008FD0B0008E0
:1000E000FD0B0008FD0B0008FD0B0008FD0B0008D0
:1000F000FD0B0008FD0B0008FD0B0008FD0B0008C0
:10010000FD0B0008FD0B0008FD0B0008FD0B0008AF
:10011000FD0B0008FD0B0008FD0B0008FD0B00089F
:10012000FD0B0008FD0B0008FD0B0008FD0B00088F
:10013000FD0B0008FD0B0008FD0B0008FD0B00087F
:10014000FD0B0008FD0B0008FD0B0008FD0B00086F
:10015000FD0B0008FD0B0008FD0B0008FD0B00085F
:10016000FD0B0008FD0B0008FD0B0008FD0B00084F
:10017000FD0B0008FD0B0008FD0B0008000000004F
:10018000FD0B0008FD0B0008FD0B0008FD0B00082F
:10019000FD0B0008FD0B0008FD0B0008FD0B00081F
:0C01A000FD0B0008FD0B0008FD0B000823
:1001B00010B5054C237833B9044B13B10448AFF3A1
:1001C00000800123237010BD8C000020000000007F
:1001D000B806010808B5034B1BB103490348AFF348
:1001E000008008BD0000000090000020B806010853
:1001F00001F0FF01102A2BDB10F0070F08D010F8D8
:10020000013B013A8B422DD010F0070F42B3F6D1DB
:10021000F0B441EA012141EA014122F007047FF0F4
:1002200000070023F0E80256083C85EA010586EA4B
:10023000010685FA47F5A3FA87F586FA47F6A5FA87
:1002400087F68EB9EED1F0BC01F0FF0102F0070293
:1002500032B110F8013B013A83EA010313B1F8D13E
:100260000020704701387047002D06BF354603381F
:10027000073815F0010F07D1013015F4807F02BF58
:10028000013015F4C03F0130F0BC0138704700BFA9
:1002900053B94AB9002908BF00281CBF4FF0FF31ED
:1002A0004FF0FF3000F070B9ADF1080C6DE904CEED
:1002B00000F006F8DDF804E0DDE9022304B0704741
:1002C0002DE9F047089E0D4604460F46002B4AD103
:1002D0008A42944665D9B2FA82F343B102FA03FC2A
:1002E000C3F120029F4020FA02F217439C404FEADC
:1002F0001C4E1FFA8CF5B7FBFEF1220C0EFB11779A
:1003000042EA074201FB05F090420AD91CEB0202C7
:1003100001F1FF3780F01C81904240F219810239CF
:100320006244121AA4B2B2FBFEF00EFB102244EAA1
:10033000024400FB05F5A5420AD91CEB040400F1B8
:10034000FF3280F00781A54240F204816444023804
:1003500040EA0140641B00211EB1DC400023C6E9D5
:100360000043BDE8F0878B4208D9002E00F0ED80F5
:100370000021C6E900050846BDE8F087B3FA83F11D
:10038000002949D1AB4202D3824200F2F880841A9C
:1003900065EB030201201746002EE2D0C6E90047B4
:1003A000DFE702B9FFDEB2FA82F3002B40F0908063
:1003B0008A1A4FEA1C471FFA8CFE0121B2FBF7F59F
:1003C00007FB1520220C42EA00420EFB05F090428A
:1003D00008D91CEB020205F1FF3802D2904200F26C
:1003E000CB804546121AA4B2B2FBF7F007FB1022ED
:1003F00044EA02440EFB00FEA64508D91CEB0404A7
:1004000000F1FF3202D2A64500F2BB801046A4EBF9
:100410000E0440EA05409FE7C1F120078B4022FA15
:1004200007FC4CEA030C05FA01F420FA07F3FD403F
:100430004FEA1C492343B5FBF9F81FFA8CFE09FB70
:1004400018551C0C44EA054408FB0EF5A54202FAB7
:1004500001F200FA01F00BD91CEB040408F1FF3A99
:1004600080F08880A54240F28580A8F102086444AB
:10047000641B9DB2B4FBF9F309FB134445EA044441
:1004800003FB0EFEA64508D91CEB040403F1FF355F
:100490006CD2A6456AD9023B644443EA0843A3FBF5
:1004A0000295A4EB0E04AC42C846AE4656D353D0D8
:1004B00056B1B0EB080264EB0E0404FA07F7CA4029
:1004C000CC401743C6E9007418460021BDE8F08708
:1004D000C3F1200102FA03FC20FA01F225FA01F12E
:1004E0009D402A434FEA1C471FFA8CFEB1FBF7F0F0
:1004F00007FB1015110C41EA054100FB0EF58D427A
:1005000004FA03F408D91CEB010100F1FF382FD2E3
:100510008D422DD902386144491B92B2B1FBF7F5E7
:1005200007FB151142EA014205FB0EF1914208D981
:100530001CEB020205F1FF3816D2914214D9023D9C
:100540006244521A45EA004138E73146304608E72E
:100550003946E6E61046FBE64845A9D2B9EB020863
:1005600065EB0C0E013BA3E74546EAE72B4694E713
:100570004046D1E7D0467BE7023D624432E7084679
:100580000AE76444023842E7704700BF98B500AFFD
:1005900000F096FC00F006F900F074F902F03AFD64
:1005A000774B5B69764A1068764A1468764A02216E
:1005B000984703462360724B5B69714A1068714A21
:1005C0001468724A03219847034623606C4B5B69A9
:1005D0006B4A10686B4A14686D4A192198470346A4
:1005E0002360694B9B6843F48073674AD360644B14
:1005F0001B69634A1068644AD26866490C6819210D
:100600009847034623600A2000F0CCFC5C4B5B69F2
:100610005B4A10685B4A14685F4A19219847034691
:100620002360574B5B69564A1068564A1468584A0B
:100630001921984703462360534B9B6823F480732A
:10064000514AD3604E4B1B694D4A10684E4AD268DE
:1006500050490C6819219847034623600A2000F08E
:10066000A1FC474B5B69464A1068464A14684A4AEF
:100670001921984703462360414B5B69404A106843
:10068000404A1468454A00219847034623603E4B80
:100690005B6943F480433C4A9361394B1B69384A98
:1006A0001068394A92693B490C6800219847034613
:1006B00023600A2000F076FC314B5B69304A1068F9
:1006C000304A1468364A00219847034623602C4B71
:1006D0005B692B4A10682B4A14682D4A19219847E8
:1006E00003462360284B9B6843F48073264AD360FB
:1006F000234B1B69224A1068234AD26825490C689B
:1007000019219847034623600A2000F04BFC1C4B3C
:100710005B691B4A10681B4A14681F4A19219847D5
:1007200003462360164B5B69154A1068154A146826
:10073000174A1921984703462360134B9B6823F4FB
:100740008073114AD3600E4B1B690D4A10680E4A24
:10075000D26810490C6819219847034623600A2083
:1007600000F020FC064B5B69054A1068054A1468D6
:10077000094A192198470346236002F09DFCFCE7D3
:10078000DC4C0020D0000020A8000020AC0000209D
:10079000B0000020D4000020B8000020BC000020E1
:1007A000C400002080B594B000AF07F120033022D0
:1007B000002118460FF0D3F807F10C0300221A604D
:1007C0005A609A60DA601A610023BB602B4B1B6C85
:1007D0002A4A43F080531364284B1B6C03F0805368
:1007E000BB60BB6800237B60254B1B68244A43F435
:1007F00040431360224B1B6803F440437B607B68DB
:1008000002233B620123FB6210233B630223BB6391
:100810000023FB6308233B64B4237B640223BB6493
:100820000423FB6407F12003184601F0C3FF0346CD
:10083000002B01D000F086F801F06CFF0346002B7E
:1008400001D000F07FF80F23FB6002233B610023FF
:100850007B614FF4A053BB614FF48053FB6107F100
:100860000C030521184602F01DFA0346002B01D0A7
:1008700000F068F800BF5037BD4680BD0038024028
:100880000070004080B487B000AF00237B612C4B28
:100890001B6B2B4A43F010031363294B1B6B03F0B4
:1008A00010037B617B6900233B61254B1B6B244A52
:1008B00043F480731363224B1B6B03F480733B611F
:1008C0003B690023FB601E4B1B6B1D4A43F0040376
:1008D00013631B4B1B6B03F00403FB60FB680023DB
:1008E000BB60174B1B6B164A43F001031363144B99
:1008F0001B6B03F00103BB60BB6800237B60104BE4
:100900001B6B0F4A43F0800313630D4B1B6B03F00B
:1009100080037B607B6800233B60094B1B6B084AAC
:1009200043F002031363064B1B6B03F002033B60AF
:100930003B6800BF1C37BD465DF8047B704700BFB5
:100940000038024080B400AF72B600BFFEE700007E
:1009500080B483B000AF00237B60104B5B6C0F4A08
:1009600043F4804353640D4B5B6C03F480437B6022
:100970007B6800233B60094B1B6C084A43F08053A3
:100980001364064B1B6C03F080533B603B6800BF55
:100990000C37BD465DF8047B704700BF003802404D
:1009A00080B400AFFEE780B400AFFEE780B400AFD4
:1009B000FEE780B400AFFEE780B400AFFEE780B48E
:1009C00000AF00BFBD465DF8047B704780B400AF48
:1009D00000BFBD465DF8047B704780B400AF00BF28
:1009E000BD465DF8047B704780B500AF00F0BAFAF1
:1009F00000BF80BD80B400AF01231846BD465DF83E
:100A0000047B704780B483B000AF78603960054BD9
:100A100016221A604FF0FF3318460C37BD465DF8BA
:100A2000047B704718A7002080B582B000AF7860C3
:100A30004FF0FF317868FFF7E5FFFEE780B586B03D
:100A400000AFF860B9607A6000237B610AE0AFF321
:100A500000800146BB685A1CBA60CAB21A707B6932
:100A600001337B617A697B689A42F0DB7B681846C8
:100A70001837BD4680BD80B586B000AFF860B9605C
:100A80007A6000237B6109E0BB685A1CBA601B785E
:100A90001846AFF300807B6901337B617A697B681C
:100AA0009A42F1DB7B6818461837BD4680BD80B49A
:100AB00083B000AF78604FF0FF3318460C37BD4667
:100AC0005DF8047B704780B483B000AF7860396014
:100AD0003B684FF400525A60002318460C37BD465D
:100AE0005DF8047B704780B483B000AF7860012369
:100AF00018460C37BD465DF8047B704780B485B05E
:100B000000AFF860B9607A60002318461437BD461C
:100B10005DF8047B7047000080B487B000AF786058
:100B2000144A154BD31A7B617B693B61134B1B68DD
:100B3000002B02D1114B124A1A60104B1A687B68C5
:100B400013443A699A4205D20E4B0C221A604FF0B8
:100B5000FF3309E0094B1B68FB60084B1A687B6890
:100B60001344064A1360FB6818461C37BD465DF8FF
:100B7000047B70470000032000040000D800002020
:100B800028A7002018A7002080B400AF064BD3F898
:100B90008830054A43F47003C2F8883000BFBD4670
:100BA0005DF8047B704700BF00ED00E0DFF834D053
:100BB000FFF7EAFF0C480D490D4A002302E0D45824
:100BC000C4500433C4188C42F9D30A4A0A4C002397
:100BD00001E013600432A242FBD30EF00FFFFFF7D7
:100BE000D5FC704700000320000000208C0000208E
:100BF000503601088C00002028A70020FEE780B4B2
:100C000083B000AF786039607B68002B0BD03B6805
:100C1000DB68002B07D03B689B68002B03D03B6848
:100C20001B69002B02D14FF0FF3314E03B681A68B8
:100C30007B689A603B685A687B68DA603B68DA6870
:100C40007B685A613B689A687B681A613B681A69DD
:100C50007B689A61002318460C37BD465DF8047B1B
:100C6000704780B586B000AF78600023FB6000233A
:100C7000BB6000237B6100233B617B685B68002BCA
:100C80007CD17B689B68002B02D07B689B6898476F
:100C90007B6820221A6000237B611CE07B685B6913
:100CA00007F108021921786998470346002B03DAF7
:100CB0006FF004033B610BE0BB6803F01F037A692C
:100CC0009A4205D17B687A691A6000233B6105E08E
:100CD0007B6901337B617B691F2BDFD97B681B68D4
:100CE0001F2B02D96FF002033B613B69002B45D1FA
:100CF0007B681B697A6810684FF4004200219847AE
:100D00000346002B37DB7B685B697A68106807F164
:100D10000802002198470346002B28DB7B689B696B
:100D200098470346FB601CE07B689B699847034635
:100D30001A46FB68D31AB3F5FA7F0ED87B685B6955
:100D40007A68106807F10802002198470346002BD3
:100D500007DA6FF004033B6110E06FF001033B61C1
:100D60000CE0BB6803F40043002BDDD106E06FF01C
:100D700004033B6102E06FF003033B613B69002B1E
:100D800012D17B689B6998470346FB6000BF7B6874
:100D90009B69984703461A46FB68D31AB3F5FA6F66
:100DA000F5D97B6801225A603B6918461837BD4661
:100DB00080BD80B584B000AF78600023FB607B68A5
:100DC0005B697A68106807F10C02012198470346B5
:100DD000002B02DA6FF004036EE07B685B697A68CF
:100DE000106807F10C02012198470346002B02DA34
:100DF0006FF0040360E0FB6803F00403002B01D1F3
:100E0000012359E07B685B697A68106807F10C027E
:100E1000002198470346002B02DA6FF004034BE0F1
:100E2000FB6803F48053002B1BD1FB6803F40053D1
:100E3000002B06D0FB6803F48073002B01D0022343
:100E40003AE0FB6803F40053002B01D0032333E0A6
:100E5000FB6803F48073002B01D004232CE00523EE
:100E60002AE07B685B697A68106807F10C02102140
:100E700098470346002B02DA6FF004031CE0FB687E
:100E800003F01003002B01D1062315E0FB6803F0EB
:100E90000603042B01D102230EE0FB6803F00603D6
:100EA000002B01D1032307E0FB6803F00603062BA8
:100EB00001D1042300E0052318461037BD4680BD4C
:100EC00080B500AF0E4B1B680D4A43F400731360EE
:100ED0000B4B1B680A4A43F480631360084B1B6882
:100EE000074A43F480731360032000F031F90F20A8
:100EF00000F008F8FFF72CFD0023184680BD00BF66
:100F0000003C024080B582B000AF7860124B1A6896
:100F1000124B1B7819464FF47A73B3FBF1F3B2FB13
:100F2000F3F3184600F03BF90346002B01D00123F0
:100F30000EE07B680F2B0AD8002279684FF0FF3053
:100F400000F011F9064A7B681360002300E00123DA
:100F500018460837BD4680BD00000020080000206C
:100F60000400002080B400AF064B1B781A46064BE5
:100F70001B681344044A136000BFBD465DF8047B40
:100F8000704700BF08000020DC00002080B400AFE4
:100F9000034B1B681846BD465DF8047B704700BFD5
:100FA000DC00002080B584B000AF7860FFF7EEFF72
:100FB000B8607B68FB60FB68B3F1FF3F05D00A4B6C
:100FC0001B781A46FB681344FB6000BFFFF7DEFF87
:100FD0000246BB68D31AFA689A42F7D800BF00BF2E
:100FE0001037BD4680BD00BF0800002080B485B02A
:100FF00000AF78607B6803F00703FB600C4BDB6895
:10100000BB60BA684FF6FF031340BB60FB681A026F
:10101000BB68134343F0BF6343F40033BB60044A2F
:10102000BB68D36000BF1437BD465DF8047B7047D2
:1010300000ED00E080B400AF044BDB681B0A03F056
:1010400007031846BD465DF8047B704700ED00E0DD
:1010500080B483B000AF03463960FB7197F9073065
:10106000002B0ADB3B68DAB20C4997F90730120112
:10107000D2B20B4483F800230AE03B68DAB2084995
:10108000FB7903F00F03043B1201D2B20B441A7632
:1010900000BF0C37BD465DF8047B704700E100E0FF
:1010A00000ED00E080B489B000AFF860B9607A600C
:1010B000FB6803F00703FB61FB69C3F10703042B23
:1010C00028BF0423BB61FB690433062B02D9FB69EB
:1010D000033B00E000237B614FF0FF32BB6902FA63
:1010E00003F3DA43BB681A407B699A404FF0FF3143
:1010F0007B6901FA03F3D9437B680B40134318461D
:101100002437BD465DF8047B7047000080B582B08F
:1011100000AF78607B68013BB3F1807F01D301238E
:101120000FE00A4A7B68013B53600F214FF0FF300C
:10113000FFF78EFF054B00229A60044B07221A60CE
:10114000002318460837BD4680BD00BF10E000E010
:1011500080B582B000AF78607868FFF747FF00BFC6
:101160000837BD4680BD80B586B000AF0346B96084
:101170007A60FB7300237B61FFF75CFF78617A681C
:10118000B9687869FFF78EFF024697F90F3011466C
:101190001846FFF75DFF00BF1837BD4680BD80B51C
:1011A00082B000AF78607868FFF7B0FF034618465A
:1011B0000837BD4680BD000080B584B000AF7860C0
:1011C0007B68002B01D101236CE07B68D3F884306D
:1011D000002B06D17B682322C3F88420786802F0B4
:1011E00025F90023BB60314B5B6C304A43F48043EC
:1011F00053642E4B5B6C03F48043BB60BB682C4B89
:101200005B682B4A23F400035360294B5A687B68C0
:101210009B68274913434B60254B5B687B681B68C1
:1012200003F580531B687A68126843F0010302F5E6
:1012300080521360FFF7AAFEF86011E0FFF7A6FEE8
:101240000246FB68D31AB3F5FA7F09D97B680422FA
:10125000C3F888207B68E022C3F88420012321E0C2
:101260007B681B6803F580531B6803F00103002BA8
:10127000E4D1786800F0FCFD786800F0A3FE78689F
:1012800000F0F9FE7B685B681A460021786800F080
:1012900061FE7B680022C3F888207B681022C3F8B7
:1012A0008420002318461037BD4680BD0038024018
:1012B0000038014080B584B000AF78607B68D3F817
:1012C0008430102B50D17B682322C3F884207B68A4
:1012D0000422DA66786800F0FDF97B681B681A68FA
:1012E0007B681B6842F008021A607B681B681B68F9
:1012F000FB600120FFF756FE7B681B68FA681A60E6
:101300007B681B681A687B681B6842F004021A60DD
:101310007B681B681B68FB600120FFF743FE7B684E
:101320001B68FA681A60786800F042FC7B681B68EA
:1013300003F580539B697A68126843F4005302F501
:10134000805293617B681B6803F580539B697A68C0
:10135000126843F0020302F5805293617B682322F6
:10136000C3F88420002300E0012318461037BD464F
:1013700080BD80B584B000AF78607B68D3F88430DE
:10138000232B4AD17B682322C3F884207B681B6807
:1013900003F580539B697A68126823F4005302F5C1
:1013A000805293617B681B6803F580539B697A6860
:1013B000126823F0020302F5805293617B681B6878
:1013C0001A687B681B6822F004021A607B681B683D
:1013D0001B68FB600120FFF7E5FD7B681B68FA686E
:1013E0001A60786800F0E4FB7B681B681A687B6809
:1013F0001B6822F008021A607B681B681B68FB6090
:101400000120FFF7CFFD7B681B68FA681A607B68D4
:101410001022C3F88420002300E00123184610376F
:10142000BD4680BD80B586B000AFF860B9607A6017
:10143000BB68002B09D1FB68D3F8883043F0010268
:10144000FB68C3F8882001237CE0FB68D3F8843074
:10145000232B76D10022B968F86800F079FE0346A4
:10146000002B09D0FB68D3F8883043F00202FB68F8
:10147000C3F88820012365E0BFF34F8F00BFFB68EE
:101480009A6AFB68063253F822307B61FB689B6ADC
:101490005A1CFB689A62FB689B6A032B04D9FB68A1
:1014A0009B6A1A1FFB689A62FB68996AFB681A6854
:1014B000FB68063153F8213002F580525360FFF784
:1014C00065FD386137E0FB681B6803F580535B6995
:1014D00003F40053002B11D0FB68D3F8883043F09D
:1014E0000802FB68C3F88820FB681B6803F580537B
:1014F0005A69FB68C3F88C20012323E07B68B3F1B1
:10150000FF3F18D0FFF742FD02463B69D31A7A68C5
:101510009A4202D37B68002B0DD1FB68D3F8883048
:1015200043F00402FB68C3F888207B694FF0405207
:101530001A60012306E07B691B68002BC3DB0023D4
:1015400000E0012318461837BD4680BD80B588B03D
:1015500000AF7860396000237B610023FB733B6838
:10156000002B09D17B68D3F8883043F001027B68F7
:10157000C3F888200123A8E07B68D3F88430232BAC
:1015800001D00123A1E07B68DB6DFB617B68FA6918
:10159000123253F82230BB617B68DB6EC3F1040367
:1015A000BB606AE0BB691B6803F48073002B07D043
:1015B000BB69DA697B689A67BB699A697B685A6715
:1015C000BB691B6803F40073002B03D17B68DB6FDE
:1015D000002B40D0BB691B6803F40073002B05D0BF
:1015E0007B6800221A667B6800225A667B685B690A
:1015F0003B61BB691B6803F48073002B0CD0BB6993
:101600001B681B0CC3F30D03043B3B61BB691A68E9
:101610007B681A670123FB73BB699A68BB691A620E
:101620007B6803F17C007B6803F18001BB691B6A66
:101630001A463B699BB202F009F97B681B6E5A1C83
:101640007B681A667B685A6E3B691A447B685A66E7
:10165000BB6900221A62FB690133FB61FB69032B42
:1016600002D9FB69043BFB617B68FA69123253F8CB
:101670002230BB617B6901337B61BB691B68002B36
:1016800006DB7A69BB689A4202D2FB7B002B89D0C9
:101690007B68DA6E7B691A447B68DA667B68DB6E8E
:1016A000002B02D0786800F015F87B68FA69DA65DB
:1016B000FB7B012B08D17B68DA6F3B681A607B6883
:1016C0000022DA67002300E0012318462037BD46D8
:1016D00080BD000080B588B000AF78600023BB609B
:1016E0000123FB747B689B6EFB617B68FA69123295
:1016F00053F822307B617B68DB6EBB613DE07B6928
:101700001B6A002B12D107F10803184602F06EF88D
:10171000BB68002B02D10023FB7407E0BB681A46AC
:101720007B691A62BB681A467B699A60FB7C002B56
:1017300023D07B689B6D002B03D17B69244A5A60C0
:1017400003E07B694FF48C425A607B691B6843F06D
:1017500000427B691A60FB690133FB61FB69032B63
:1017600002D9FB69043BFB617B68FA69123253F8CA
:1017700022307B61BB69013BBB61BB69002B02D09E
:10178000FB7C002BBBD17B68DB6EBA699A421AD016
:10179000FB69013303F00303FB60BFF35F8F00BFFE
:1017A0007B681969FA6813469B001344DB00CA186A
:1017B0007B681B6803F580539A607B68FA699A66B8
:1017C0007B68BA69DA6600BF2037BD4680BD00BFBE
:1017D0000046008080B586B000AFF860B9607A60DE
:1017E0003B60FB681B681B697B617B6903F01C0322
:1017F0007B61BB68DB029BB27A6913437B617B68C8
:101800009B0103F4F8637A6913437B617B6923F0DE
:1018100002037B617B6943F001037B61FB681B680A
:101820007A691A61FFF7B2FB38610DE0FFF7AEFB92
:1018300002463B69D31AB3F5803F01D3012310E080
:10184000FB681B681B697B617B6903F00103002B4C
:10185000ECD1FB681B685B699BB21A463B681A6057
:10186000002318461837BD4680BD80B586B000AF4E
:10187000F860B9607A603B60FB681B681B697B613C
:101880007B6903F01C037B61BB68DB029BB27A6956
:1018900013437B617B689B0103F4F8637A6913430C
:1018A0007B617B6943F002037B617B6943F0010349
:1018B0007B613B689AB2FB681B685A61FB681B68D6
:1018C0007A691A61FFF762FB38610DE0FFF75EFB92
:1018D00002463B69D31AB3F5803F01D3012309E0E7
:1018E000FB681B681B697B617B6903F00103002BAC
:1018F000ECD1002318461837BD4680BD80B483B0B4
:1019000000AF786039603B68002B01D10123D9E03A
:101910007B681B681B6803F01003002B14BF0123B6
:101920000023DBB21A463B6883F828207B681B68DB
:101930001B6803F060023B685A627B681B681B6887
:1019400003F40073002B0CBF01230023DBB21A4603
:101950003B6883F820207B681B681B6803F4803396
:10196000002B14BF01230023DBB21A463B68DA7751
:101970007B681B681B6803F40053002B0CBF01231A
:101980000023DBB21A463B689A777B681B681B68AA
:1019900003F48053002B14BF01230023DBB21A464B
:1019A0003B681A777B681B681B6803F400623B681E
:1019B0009A617B681B681B6803F480423B685A612C
:1019C0007B681B681B6803F48003002B0CBF01239A
:1019D0000023DBB21A463B685A747B681B681B689D
:1019E00003F40003002B0CBF01230023DBB21A46D3
:1019F0003B681A747B681B681B6803F08003002B2C
:101A000014BF01230023DBB21A463B68DA737B68FC
:101A10001B681B6803F460223B689A607B681B6844
:101A20001B6803F48063002B14BF01230023DBB287
:101A30001A463B681A717B681B689B6903F00203B6
:101A4000002B14BF01230023DBB21A463B6883F846
:101A500054207B681B689B6903F08003002B0CBF3C
:101A600001230023DBB21A463B6883F84C207B68D5
:101A70001B689B6903F030023B681A657B681B6832
:101A80009B691B0C9AB23B689A647B681B689B69D4
:101A900003F00403002B14BF01230023DBB21A461A
:101AA0003B6883F856207B681B689B6903F008033A
:101AB000002B14BF01230023DBB21A463B6883F8D6
:101AC0005520002318460C37BD465DF8047B70474F
:101AD00080B582B000AF786039603B68002B01D1DF
:101AE00001230BE07B68D3F88430102B05D13968D3
:101AF000786800F083F8002300E0012318460837D7
:101B0000BD4680BD80B584B000AF78607B681B683F
:101B10001B69FB60FB6823F01C03FB6001F06EFA9D
:101B2000B860BB681D4A934208D9BB681C4A9342FF
:101B300004D8FB6843F00803FB6027E0BB68184A41
:101B4000934208D9BB68174A934204D2FB6843F01A
:101B50000C03FB601AE0BB68124A934203D3BB68D4
:101B6000114A934211D9BB680F4A934208D9BB6806
:101B70000E4A934204D8FB6843F00403FB6005E07F
:101B8000FB6843F01003FB6000E000BF7B681B684C
:101B9000FA681A6100BF1037BD4680BDFF2C3101C5
:101BA000BF0E160200879303FFE0F5057FD1F00812
:101BB00080B584B000AF78600023FB607B681B6851
:101BC00003F580539B697A68126843F4801302F529
:101BD000805293617B681B6803F580539B69FB60AF
:101BE0000120FFF7DFF97B681A68FB6802F5805275
:101BF000936100BF1037BD4680BD000080B584B042
:101C000000AF786039607B681B681B68FB60FA680E
:101C1000514B1340FB603B681B7C002B02D14FF4FF
:101C2000000200E000223B685B7C002B02D14FF4F5
:101C3000800300E000231A433B689B681A433B681B
:101C4000DB7F1B041A433B685B6913433A68927F4E
:101C5000002A02D14FF4005200E000221A433B68F0
:101C60001B7F1B031A433B689B691A433B681B7924
:101C70009B0213433A6892F82020002A02D14FF4C5
:101C8000007200E000221A433B68DB7BDB011A4351
:101C90003B685B6A1A433B6893F828301B01134387
:101CA000FA681343FB607B681B68FA681A607B68FC
:101CB0001B681B68FB600120FFF774F97B681B68D9
:101CC000FA681A607B681B689B69FB60FA684FF6CC
:101CD00041731340FB603B689B6C1B043A6892F8AD
:101CE0004C20002A01D1802200E000221A433B68E8
:101CF0001B6D13433A6892F85520012A01D108223E
:101D000000E0002213433A6892F85620012A01D1DC
:101D1000042200E0002213433A6892F85420012A7A
:101D200001D1022200E000221343FA681343FB6052
:101D30007B681B68FA689A617B681B689B69FB601B
:101D40000120FFF72FF97B681B68FA689A6100BFD2
:101D50001037BD4680BD00BF0F8120FF80B584B025
:101D600000AF786039607B681B6803F580539B691E
:101D7000FB60FA683D4B1340FB603B681B7B002B0C
:101D800002D14FF0806200E000223B685B7B5B0683
:101D900013433A68527F002A02D14FF4801200E0C8
:101DA00000221A433B689B7B5B051A433B685B69D7
:101DB0001A433B681B7FDB011A433B689B7F9B01F7
:101DC0001A433B681B6A1A433B6893F824309B0014
:101DD0001343FA681343FB607B681B6803F5805369
:101DE0001A46FB6893617B681B6803F580539B6907
:101DF000FB600120FFF7D6F87B681B6803F5805372
:101E00001A46FB6893613B681B795A063B689B68DE
:101E10001A433B689B691A433B681B691A433B683A
:101E200093F82530DB011A433B689B6A9B001A43F9
:101E30003B681B6813437A68126843F4000302F599
:101E4000805213607B681B6803F580531B68FB603E
:101E50000120FFF7A7F87B681B6803F580531A463B
:101E6000FB68136000BF1037BD4680BD233FDEF81E
:101E700080B5A6B000AF7860012387F84430012315
:101E800087F845300023FB63002387F85330012394
:101E900087F85230002387F85030012387F8383014
:101EA000002387F85430002387F843300023BB65B4
:101EB000002387F85C300023FB67002387F880301D
:101EC0000023C7F88430002387F88A30002387F87E
:101ED00088304FF48043BB644FF40063FB640023FD
:101EE00087F8893007F1340319467868FFF786FED2
:101EF00001233B7501237B75012387F825300123DE
:101F0000BB750023FB61002387F82430002387F88A
:101F100026300023BB62012387F82C3001233B735A
:101F20004FF480333B614FF480033B624FF4005326
:101F3000BB61012387F82D3000233B630023BB6086
:101F400007F1080319467868FFF708FF00BF9837C4
:101F5000BD4680BD80B487B000AFF860B9607A60DC
:101F60007B6805331B781B027A68043212781343AE
:101F70007B61BA68114B13441A467B6913607B6816
:101F800003331B781A067B6802331B781B041A4341
:101F90007B6801331B781B0213437A681278134362
:101FA0007B61BA68064B13441A467B69136000BF15
:101FB0001C37BD465DF8047B704700BF408002407F
:101FC0004480024080B485B000AF78600023FB609D
:101FD0003EE07B68D968FA6813469B001344DB0037
:101FE0000B44BB60BB6800221A60BB6800225A60C9
:101FF000BB6800229A60BB680022DA60B9687B681F
:10200000FA68063243F82210BB681B6843F480125A
:10201000BB681A60FB68022B0CD87B68D968FB6828
:102020005A1C13469B001344DB000B441A46BB6842
:10203000DA6004E07B68DB681A46BB68DA60BB687C
:102040001B6843F44002BB681A60FB680133FB6005
:10205000FB68032BBDD97B6800229A627B68DA6833
:102060007B681B6803F580531A6100BF1437BD46B7
:102070005DF8047B704780B485B000AF78600023C2
:10208000FB6046E07B681969FA6813469B001344BD
:10209000DB000B44BB60BB6800221A60BB680022F7
:1020A0005A60BB6800229A60BB680022DA60BB6895
:1020B00000221A62BB6800225A62BB684FF00042DD
:1020C0001A60BB684FF48C425A60BB685B6823F0AF
:1020D0000042BB685A60B9687B68FA68123243F8FC
:1020E0002210FB68022B0CD87B681969FB685A1C0C
:1020F00013469B001344DB000B441A46BB68DA60AE
:1021000004E07B681B691A46BB68DA60FB68013330
:10211000FB60FB68032BB5D97B680022DA657B681E
:1021200000221A667B6800229A667B680022DA66C3
:102130007B6800229A657B681A697B681B6803F5D7
:102140008053DA6000BF1437BD465DF8047B7047EA
:1021500080B48DB000AFF860B9607A60FB68183366
:102160007B617B691B69FB627B691B693B610023A7
:102170007B627B69FA6A53F822303B62BB689B68DA
:10218000FB610023BB613B6A1B6803F00043B3F1B2
:10219000004F07D07A69FB6A04339B0013445B68E5
:1021A000002B01D0022303E17B6A01337B62FB69D0
:1021B0001B681A463B6A9A603B6A5B6823F4FF53CC
:1021C00023F01F03FA6952681A433B6A5A60BB68DE
:1021D0001B6803F00103002B08D03B6A1B6823F443
:1021E0004002BB685B691A433B6A1A60BB681B68A4
:1021F00003F02003002B08D03B6A1B6823F04062E9
:10220000BB681B691A433B6A1A60BB681B6803F012
:102210000403002B05D03B6A1B6843F080023B6A35
:102220001A603B6A1B6843F080523B6A1A60BFF336
:102230005F8F00BF3B6A1B6843F000423B6A1A6035
:1022400084E03B6A1B6823F000523B6A1A607B689B
:10225000002B06D03B6A1B6843F080423B6A1A6041
:1022600005E03B6A1B6823F080423B6A1A60FB6A08
:102270000133FB62FB6A032B02D9FB6A043BFB625E
:102280007B69FA6A53F822303B623B6A1B6823F091
:1022900080523B6A1A603B6A1B6803F00043B3F14B
:1022A000004F07D07A69FB6A04339B0013445B68D4
:1022B000002B29D03B69FB627B69FA6A53F8223014
:1022C0003B620023BB6219E0BFF35F8F00BF3B6A34
:1022D0001B6823F000423B6A1A60FB6A0133FB6211
:1022E000FB6A032B02D9FB6A043BFB627B69FA6A37
:1022F00053F822303B62BB6A0133BB62BA6A7B6A25
:102300009A42E1D3022353E07B6A01337B62FB698B
:102310009B68FB61FB691B681A463B6A9A603B6AD3
:102320005B6823F4FF5323F01F03FA6952681A43D2
:102330003B6A5A60BB690133BB61BFF35F8F00BF6B
:102340003B6A1B6843F000423B6A1A60FB699B686A
:10235000002B7FF476AF7B68002B06D03B6A1B68AE
:1023600043F080423B6A1A6005E03B6A1B6823F039
:1023700080423B6A1A603B6A1B6843F000523B6A2A
:102380001A607B695A6A7969FB6A04339B000B44C3
:102390005A607B69FA6A1A6172B600BF7B699A6AF1
:1023A000BB6913445A1C7B699A6262B600BF002362
:1023B00018463437BD465DF8047B704780B489B059
:1023C00000AF7860396000237B6100233B6100230C
:1023D000BB610023FB6177E10122FB6902FA03F391
:1023E0007B613B681B687A6913403B613A697B6992
:1023F0009A4240F066813B685B6803F00303012B5F
:1024000005D03B685B6803F00303022B30D17B6887
:102410009B68BB61FB695B00032202FA03F3DB43A9
:10242000BA691340BB613B68DA68FB695B0002FA7A
:1024300003F3BA691343BB617B68BA699A607B682E
:102440005B68BB610122FB6902FA03F3DB43BA69F3
:102450001340BB613B685B681B0903F00102FB6929
:1024600002FA03F3BA691343BB617B68BA695A6025
:102470003B685B6803F00303032B17D07B68DB68C2
:10248000BB61FB695B00032202FA03F3DB43BA6919
:102490001340BB613B689A68FB695B0002FA03F377
:1024A000BA691343BB617B68BA69DA603B685B68F1
:1024B00003F00303022B23D1FB69DA087B6808329F
:1024C00053F82230BB61FB6903F007039B000F2226
:1024D00002FA03F3DB43BA691340BB613B681A6934
:1024E000FB6903F007039B0002FA03F3BA69134385
:1024F000BB61FB69DA087B680832B96943F82210CE
:102500007B681B68BB61FB695B00032202FA03F373
:10251000DB43BA691340BB613B685B6803F00302AD
:10252000FB695B0002FA03F3BA691343BB617B6882
:10253000BA691A603B685B6803F44033002B00F013
:10254000C0800023FB60664B5B6C654A43F48043AC
:102550005364634B5B6C03F48043FB60FB68614A2C
:10256000FB699B08023352F82330BB61FB6903F01F
:1025700003039B000F2202FA03F3DB43BA69134003
:10258000BB617B68584A934237D07B68574A934275
:1025900031D07B68564A93422BD07B68554A934290
:1025A00025D07B68544A93421FD07B68534A93429C
:1025B00019D07B68524A934213D07B68514A9342A8
:1025C0000DD07B68504A934207D07B684F4A9342B4
:1025D00001D1092312E00A2310E008230EE00723AB
:1025E0000CE006230AE0052308E0042306E00323A9
:1025F00004E0022302E0012300E00023FA6902F074
:10260000030292009340BA691343BB613549FB69E9
:102610009B080233BA6941F823203D4B9B68BB619C
:102620003B69DB43BA691340BB613B685B6803F4F9
:102630008013002B03D0BA693B691343BB61344A52
:10264000BB699360324BDB68BB613B69DB43BA69B2
:102650001340BB613B685B6803F40013002B03D09D
:10266000BA693B691343BB61294ABB69D360284BF4
:102670005B68BB613B69DB43BA691340BB613B6884
:102680005B6803F40033002B03D0BA693B69134342
:10269000BB611F4ABB6953601D4B1B68BB613B6933
:1026A000DB43BA691340BB613B685B6803F480336A
:1026B000002B03D0BA693B691343BB61144ABB6961
:1026C0001360FB690133FB61FB690F2B7FF684AE5E
:1026D00000BF00BF2437BD465DF8047B704700BFD4
:1026E000003802400038014000000240000402406F
:1026F00000080240000C024000100240001402409A
:1027000000180240001C0240002002400024024049
:10271000003C014080B582B000AF00237B60002305
:102720003B60204B1B6C1F4A43F0805313641D4BCE
:102730001B6C03F080533B603B681B4B01221A600B
:10274000FEF724FC786009E0FEF720FC02467B6877
:10275000D31AB3F57A7F01D903231FE0134B5B68CB
:1027600003F48033B3F5803FEED1114B01221A60A0
:10277000FEF70CFC786009E0FEF708FC02467B6877
:10278000D31AB3F57A7F01D9032307E0074B5B68BF
:1027900003F40033B3F5003FEED1002318460837A9
:1027A000BD4680BD0038024040000E42007000402F
:1027B00044000E4280B586B000AF78607B68002B85
:1027C00001D1012367E27B681B6803F00103002B42
:1027D00075D0884B9B6803F00C03042B0CD0854B01
:1027E0009B6803F00C03082B12D1824B5B6803F447
:1027F0008003B3F5800F0BD17E4B1B6803F40033CD
:10280000002B5BD07B685B68002B57D1012342E231
:102810007B685B68B3F5803F06D1764B1B68754AD1
:1028200043F4803313601DE07B685B68B3F5A02F31
:102830000CD1704B1B686F4A43F4802313606D4BBF
:102840001B686C4A43F4803313600BE0694B1B68D0
:10285000684A23F480331360664B1B68654A23F48F
:10286000802313607B685B68002B13D0FEF78EFB20
:10287000386108E0FEF78AFB02463B69D31A642BF5
:1028800001D9032307E25B4B1B6803F40033002BE1
:10289000F0D014E0FEF77AFB386108E0FEF776FB33
:1028A00002463B69D31A642B01D90323F3E1514B50
:1028B0001B6803F40033002BF0D100E000BF7B68FD
:1028C0001B6803F00203002B63D04A4B9B6803F0A4
:1028D0000C03002B0BD0474B9B6803F00C03082B19
:1028E0001CD1444B5B6803F48003002B16D1414B91
:1028F0001B6803F00203002B05D07B68DB68012B0B
:1029000001D00123C7E13B4B1B6823F0F8027B6831
:102910001B69DB00374913430B603AE07B68DB68D7
:10292000002B20D0344B01221A60FEF72FFB3861B8
:1029300008E0FEF72BFB02463B69D31A022B01D9B4
:102940000323A8E12B4B1B6803F00203002BF0D0FC
:10295000284B1B6823F0F8027B681B69DB002549C4
:1029600013430B6015E0244B00221A60FEF70EFBA8
:10297000386108E0FEF70AFB02463B69D31A022BD6
:1029800001D9032387E11B4B1B6803F00203002BD3
:10299000F0D17B681B6803F00803002B36D07B68FE
:1029A0005B69002B16D0154B01221A60FEF7EEFA78
:1029B000386108E0FEF7EAFA02463B69D31A022BB7
:1029C00001D9032367E10B4B5B6F03F00203002B7C
:1029D000F0D01BE0094B00221A60FEF7D7FA3861ED
:1029E0000EE0FEF7D3FA02463B69D31A022B07D951
:1029F000032350E10038024000004742800E474266
:102A0000884B5B6F03F00203002BEAD17B681B68E5
:102A100003F00403002B00F097800023FB75814B2B
:102A20001B6C03F08053002B0FD10023BB607D4B48
:102A30001B6C7C4A43F0805313647A4B1B6C03F08D
:102A40008053BB60BB680123FB75774B1B6803F4A5
:102A50008073002B18D1744B1B68734A43F4807346
:102A60001360FEF793FA386108E0FEF78FFA02462A
:102A70003B69D31A022B01D903230CE16A4B1B6873
:102A800003F48073002BF0D07B689B68012B06D188
:102A9000644B1B6F634A43F0010313671CE07B68C0
:102AA0009B68052B0CD15F4B1B6F5E4A43F0040300
:102AB00013675C4B1B6F5B4A43F0010313670BE02A
:102AC000584B1B6F574A23F001031367554B1B6F7D
:102AD000544A23F0040313677B689B68002B15D0CE
:102AE000FEF754FA38610AE0FEF750FA02463B69F5
:102AF000D31A41F28832934201D90323CBE0494BE8
:102B00001B6F03F00203002BEED014E0FEF73EFA39
:102B100038610AE0FEF73AFA02463B69D31A41F2FD
:102B20008832934201D90323B5E03E4B1B6F03F07B
:102B30000203002BEED1FB7D012B05D1394B1B6C21
:102B4000384A23F0805313647B689B69002B00F0A4
:102B5000A180344B9B6803F00C03082B5CD07B688E
:102B60009B69022B41D1314B00221A60FEF70EFA0D
:102B7000386108E0FEF70AFA02463B69D31A022BD5
:102B800001D9032387E0274B1B6803F00073002B58
:102B9000F0D17B68DA697B681B6A1A437B685B6AE1
:102BA0009B011A437B689B6A5B08013B1B041A4329
:102BB0007B68DB6A1B061B4913434B601B4B0122DE
:102BC0001A60FEF7E3F9386108E0FEF7DFF9024624
:102BD0003B69D31A022B01D903235CE0114B1B681C
:102BE00003F00073002BF0D054E0104B00221A6069
:102BF000FEF7CCF9386108E0FEF7C8F902463B69F8
:102C0000D31A022B01D9032345E0064B1B6803F0BE
:102C10000073002BF0D13DE07B689B69012B07D14D
:102C2000012338E000380240007000406000474255
:102C30001B4B5B68FB607B689B69012B28D0FB68A2
:102C400003F480027B68DB699A4221D1FB6803F0C0
:102C50003F027B681B6A9A421AD1FA6847F6C07332
:102C600013407A68526A9201934211D1FB6803F4CF
:102C700040327B689B6A5B08013B1B049A4207D188
:102C8000FB6803F070627B68DB6A1B069A4201D026
:102C9000012300E0002318461837BD4680BD00BF61
:102CA0000038024080B584B000AF786039607B683E
:102CB000002B01D10123CCE0684B1B6803F00F030C
:102CC0003A689A420CD9654B3A68D2B21A70634B93
:102CD0001B6803F00F033A689A4201D00123B8E061
:102CE0007B681B6803F00203002B20D07B681B6805
:102CF00003F00403002B05D0594B9B68584A43F45A
:102D0000E05393607B681B6803F00803002B05D039
:102D1000534B9B68524A43F460439360504B9B680B
:102D200023F0F0027B689B684D4913438B607B68FE
:102D30001B6803F00103002B44D07B685B68012B08
:102D400007D1474B1B6803F40033002B19D1012333
:102D50007FE07B685B68022B03D07B685B68032B9A
:102D600007D13F4B1B6803F00073002B09D10123EF
:102D70006FE03B4B1B6803F00203002B01D10123E2
:102D800067E0374B9B6823F003027B685B6834493C
:102D900013438B60FEF7FAF8F8600AE0FEF7F6F8E6
:102DA0000246FB68D31A41F28832934201D90323C9
:102DB0004FE02B4B9B6803F00C027B685B689B0029
:102DC0009A42EBD1254B1B6803F00F033A689A42F5
:102DD0000CD2224B3A68D2B21A70204B1B6803F017
:102DE0000F033A689A4201D0012332E07B681B68E6
:102DF00003F00403002B08D0194B9B6823F4E05226
:102E00007B68DB68164913438B607B681B6803F0A3
:102E10000803002B09D0124B9B6823F460427B68A7
:102E20001B69DB000E4913438B6000F021F802465A
:102E30000B4B9B681B0903F00F030A49CB5C22FA7A
:102E400003F3094A1360094B1B681846FEF75AF84A
:102E5000002318461037BD4680BD00BF003C02402D
:102E60000038024050340108000000200400002017
:102E70002DE9B04F90B000AF00237B630023FB63CC
:102E800000233B630023BB63594B9B6803F00C0397
:102E9000082B0DD0082B00F2A180002B02D0042BB0
:102EA00003D09BE0534BBB639BE0534BBB6398E069
:102EB0004F4B5B6803F03F037B634D4B5B6803F450
:102EC0008003002B28D04A4B5B689B0900223B62A1
:102ED0007A623B6AC3F308000021474B03FB01F20F
:102EE000002300FB03F31344434AA0FB0212FA62DF
:102EF0000A46BA62FA6A1344FB627B6B0022BB612A
:102F0000FA61D7E90623D7E90A01FDF7C1F90246BC
:102F10000B461346FB6353E0354B5B689B0900226D
:102F20003B617A613B69C3F3080A4FF0000B5246DC
:102F30005B464FF000004FF00001590141EAD261B9
:102F4000500102460B46B2EB0A0863EB0B094FF047
:102F500000024FF000034FEA891343EA98634FEAF7
:102F60008812B2EB080463EB09054FF000024FF042
:102F70000003EB0043EA5473E20014461D4614EBD1
:102F80000A033B6045EB0B037B604FF000024FF000
:102F90000003D7E9004529468B02214643EA9153B5
:102FA00021468A02104619467B6B0022BB60FA60FC
:102FB000D7E90223FDF76CF902460B461346FB6383
:102FC0000B4B5B681B0C03F0030301335B003B639B
:102FD000FA6B3B6BB2FBF3F3BB6302E0054BBB63E5
:102FE00000BFBB6B18464037BD46BDE8B08F00BF81
:102FF000003802400024F40040787D0180B400AF26
:10300000034B1B681846BD465DF8047B704700BF44
:103010000000002080B584B004AF00F085FC124BA6
:1030200000221A60114B00221A60114B00221A6014
:10303000104B0293104B0193002300930C4B0B4A4F
:1030400009490E4801F05CF90C4801F013FB0B48EC
:1030500001F020FB0A49094801F022FC074808F06A
:103060001BFD00BFBD4680BD1C01002020010020CB
:1030700024010020E9F400088D330008E40000205A
:10308000D530000880B582B000AF7860FDF77EFFD4
:103090000246084B1B68D31A632B07D9FDF776FF4E
:1030A0000346044A1360786800F014FB00BF083739
:1030B000BD4680BDE000002080B500AF044800F0B0
:1030C00045F907F06FFC0248FFF7DCFF00BF80BD49
:1030D000E400002080B483B000AF786000BF0C37FC
:1030E000BD465DF8047B704780B584B000AF786062
:1030F0000023FB733F4B404A1A6000233B7280233E
:103100007B72E123BB720023FB7200233B7300231D
:103110007B73384A07F108035360364B00229A60EC
:10312000344B364ADA60334B354A1A61314B4FF42F
:10313000C0625A612F48FEF73FF80346FB733822FE
:10314000002130480CF00BFC2E4B21221A602D4B35
:103150004FF440025A612B4B00221A612A4800F0BA
:1031600097FF7B68062283F83020224B5B681A7831
:103170007B6883F82A201F4B5B685A787B6883F84A
:103180002B201C4B5B689A787B6883F82C20194BAA
:103190005B68DA787B6883F82D20164B5B681A79B8
:1031A0007B6883F82E20134B5B685A797B6883F821
:1031B0002F207B6840F2DC521A857B6893F831300F
:1031C00043F00A03DAB27B6883F831200F491048D4
:1031D000FDF715FD0E48FDF744FDFB7B002B03D1E9
:1031E000786800F077FA01E0FDF7ACFB00BF10371C
:1031F000BD4680BDF44B002000800240544B0020AF
:10320000B44A0020A44C0020603401080C000020C7
:10321000DC4C002080B592B000AF786039600023AC
:103220007B6400233B64002387F83F3007F10C03E5
:103230003022002118460CF092FB07F10C033022DB
:10324000002118460CF08BFB3B683B6445E07B6C2F
:10325000032B02D96FF00B0355E03B6C59687A6C75
:1032600013465B0013449B0048333B443C3B1960CE
:103270003B6C5B8919467A6C13465B0013449B00D8
:1032800048333B44383B19607B6C002B11D07B6C7E
:103290005A1E07F10C00796C0B465B000B449B0037
:1032A000C11813465B0013449B0048333B44343B36
:1032B00019603B6C1B68002B09D17A6C13465B00CC
:1032C00013449B0048333B44343B00221A607B6C20
:1032D00001337B643B6C1B683B643B6C002BB6D1B9
:1032E0003B681B891A460A4B5A60094A07F10C03CE
:1032F0009360074A3B685363142205490548FEF76B
:1033000091F897F93F3018464837BD4680BD00BF59
:10331000A44C0020F44B002080B584B000AF78604E
:103320000023FB60074B1B78002B05D107F10C0332
:1033300019460548FEF70AF9FB6818461037BD46DE
:1033400080BD00BFB04A0020F44B002080B584B09F
:1033500000AF78600023FB607868FFF7DDFFF8605E
:10336000FB68002B0AD07B681B697968F86898476E
:103370000346002B02D0F86801F012FEFB68002B18
:10338000EAD100BF00BF1037BD4680BD80B582B016
:1033900000AF78607B68002B06D10E4B4FF4B572FE
:1033A0000D490E480CF076FA7B68732283F83220C0
:1033B0007B68742283F833207B68094A5A617B68F2
:1033C000084A9A617868FFF78FFE0023184608378D
:1033D000BD4680BDD0060108EC060108FC060108C8
:1033E00065D900081532000880B584B000AF786058
:1033F0007B68FB60F968074800F02CFF064B1B78E0
:10340000012B02D1044B00221A7000BF1037BD46B9
:1034100080BD00BF60340108B04A002080B500AF15
:10342000FDF7B4FD0346184680BD000080B590B09E
:1034300000AF786007F12C0300221A605A609A608E
:10344000DA601A617B681B68734A934240F0E0803F
:103450000023BB62714B1B6B704A43F00073136314
:103460006E4B1B6B03F00073BB62BB6A00237B6275
:103470006A4B1B6B694A43F080631363674B1B6B9A
:1034800003F080637B627B6A00233B62634B1B6BB0
:10349000624A43F000631363604B1B6B03F00063ED
:1034A0003B623B6A0023FB615C4B1B6B5B4A43F056
:1034B00010031363594B1B6B03F01003FB61FB6993
:1034C0000023BB61554B1B6B544A43F48073136359
:1034D000524B1B6B03F48073BB61BB6900237B61A0
:1034E0004E4B1B6B4D4A43F0040313634B4B1B6B5A
:1034F00003F004037B617B6900233B61474B1B6B3B
:10350000464A43F001031363444B1B6B03F0010372
:103510003B613B690023FB60404B1B6B3F4A43F020
:10352000800313633D4B1B6B03F08003FB60FB6860
:103530000023BB60394B1B6B384A43F00203136313
:10354000364B1B6B03F00203BB60BB680423FB62BA
:1035500002233B6300237B630323BB630B23FB63D7
:1035600007F12C0319462E48FEF728FF4FF480631D
:10357000FB6202233B6300237B630323BB630B23B8
:10358000FB6307F12C0319462648FEF717FF3E237D
:10359000FB6202233B6300237B630323BB630B2398
:1035A000FB6307F12C0319461F48FEF707FF87232B
:1035B000FB6202233B6300237B630323BB630B2378
:1035C000FB6307F12C0319461848FEF7F7FE0823A2
:1035D000FB6202233B6300237B630323BB630B2358
:1035E000FB6307F12C0319461148FEF7E7FE43F68B
:1035F0000303FB6202233B6300237B630323BB6360
:103600000B23FB6307F12C0319460A48FEF7D6FE8D
:1036100000BF4037BD4680BD0080024000380240F8
:10362000001002400020024000080240000002405A
:10363000001C02400004024080B500AF0248FEF7C3
:1036400061FA0023184680BDF44B002080B400AF1F
:1036500000231846BD465DF8047B704780B584B0F2
:1036600000AFF860B9607A607B68BA68F9680748AB
:10367000FEF7B0F80346002B02D04FF0FF3300E016
:10368000002318461037BD4680BD00BFF44B002014
:1036900080B584B000AFF860B9607A607B68BA68C2
:1036A000F9680748FEF7E1F80346002B02D04FF017
:1036B000FF3300E0002318461037BD4680BD00BF31
:1036C000F44B002080B500AFFDF760FC03461846C0
:1036D00080BD000080B5A0B000AF786007F10C039A
:1036E0006422002118460CF03AF900233B670023BE
:1036F000FB670023BB6700237B673A48FDF759FB54
:1037000038677B6893F831309B0803F00103DBB224
:10371000002B0CD03B6F012B09DC3348FDF729FE51
:10372000786801F023F8786801F08AF855E07B6842
:1037300093F8313003F00403002B4ED13B6F012B83
:103740004BDD3B6F023B032B2AD801A252F823F03A
:103750006137000873370008833700089337000883
:103760004FF400637B674FF48043BB670123FB6723
:1037700017E000237B674FF48043BB670123FB679F
:103780000FE04FF400637B670023BB670123FB67F7
:1037900007E000237B670023BB670123FB6700E092
:1037A00000BFFB6F002B18D007F10C0319460E4821
:1037B000FEF7A4F87B6F7B62BB6F3B6207F10C03E3
:1037C00019460948FEF784F90748FDF773FD786844
:1037D00000F060FF786800F0FBFF00BF8037BD4657
:1037E00080BD00BFDC4C0020F44B002080B586B0CB
:1037F00002AF7860124800F0BFFCF860FB68002B55
:1038000014D0FB6803F120027B681A60FB680D4A44
:103810001A617B681B684FF4C06201920093FB68D9
:1038200041220021002001F001FA05E0064B0122AF
:103830001A707B6800221A6000BF1037BD4680BD39
:1038400060340108E9330008B04A002080B489B030
:1038500000AFF860B9607A607B80FB68BB61BB68D1
:103860007B610023FB617B68203BFB61FB690022DD
:103870001A60FB6900221A81FB697A885A81BB6948
:103880001B68002B03D1BB69FA691A6003E07B69EE
:103890001B68FA691A607B69FA691A60BB691B6860
:1038A000FB6109E0FB691A897B8813449AB2FB69C2
:1038B0001A81FB691B68FB61FB69002BF2D100BF19
:1038C00000BF2437BD465DF8047B704780B483B0E9
:1038D00000AF0346FB80FB881B021AB2FB881B0A61
:1038E0009BB21BB213431BB29BB218460C37BD46AA
:1038F0005DF8047B704780B483B000AF78607B686C
:103900001A067B681B0203F47F031A437B681B0AB9
:1039100003F47F431A437B681B0E134318460C378E
:10392000BD465DF8047B704780B582B000AF0023D0
:103930007B6000F0D5F800F0DBFB00F0D9FC07F06D
:1039400073F801F0CBFD06F0E5FF00BF0837BD4678
:1039500080BD000080B483B000AF0346FB80054B00
:103960001A68FB88134418460C37BD465DF8047B83
:10397000704700BF2875002080B483B000AF786026
:10398000054B1B687A68D31A9BB218460C37BD46A4
:103990005DF8047B704700BF2875002090B585B0A6
:1039A00000AF7860454B1B687A689A4206D2444B58
:1039B00040F2DF12434944480BF06CFF434B1B6855
:1039C0007A689A4206D33E4B4FF4F07240493E4823
:1039D0000BF060FF7B681B79002B06D0384B40F260
:1039E000E1123C4938480BF055FF7B681B88B3F562
:1039F000205F06D9324B4FF4F272374932480BF050
:103A000049FF7B681B881846FFF7A4FFF8607A68B7
:103A1000FB689A4224D0FB681B79002B20D12B4BEA
:103A20001B68FA689A421BD02C4B1B68FA689A42B2
:103A300002D12A4A7B681360FB681A887B681A8067
:103A4000FB681B88B3F5205F0AD0FB681B8818460B
:103A5000FFF780FF04467868FFF78EFF0346638018
:103A60007B685B881846FFF775FFB860BA687B68AB
:103A70009A421FD0BB681B79002B1BD1174B1B68C8
:103A80007A689A4202D1154ABB6813607B681A882B
:103A9000BB681A807B681B88B3F5205F0AD07B68FF
:103AA0001B881846FFF756FF0446B868FFF764FF07
:103AB0000346638000BF1437BD4690BD28750020C3
:103AC00024070108540701086C0701082C75002021
:103AD00094070108B0070108CC07010830750020E1
:103AE00080B582B000AF184B033323F003031A46AE
:103AF000164B1A60154B1B687B607B684FF4205295
:103B00001A807B6800225A807B6800221A714FF469
:103B10002050FFF71FFF03460D4A13600C4B1B6834
:103B200001221A710A4B1B684FF420521A80084B6D
:103B30001B684FF420525A80044B1B68054A1360DF
:103B400000BF0837BD4680BD144D002028750020F9
:103B50002C7500203075002080B586B000AF7860ED
:103B60007868FFF709FF0346FB827B681B881846CD
:103B7000FFF7F0FE38617B685B881846FFF7EAFEC6
:103B8000F8607B681B88B3F5205F18D87B685B887A
:103B9000B3F5205F13D87B685B88FA8A9A4204D019
:103BA000FB681B88FA8A9A4209D1084B1B683A695C
:103BB0009A4206D03B695B88FA8A9A4201D0002378
:103BC00000E0012318461837BD4680BD2C75002043
:103BD00080B584B000AF78607B68002B4CD07B68E8
:103BE00003F00303002B07D0254B40F27322254935
:103BF00025480BF04FFE40E07B68083BFB60234B01
:103C00001B68FA689A4206D37B6803F10C02204BCA
:103C10001B689A4207D91A4B40F27F221D491A4865
:103C20000BF038FE29E0FB681B79002B07D1144B01
:103C30004FF42372184914480BF02CFE1DE0F8686D
:103C4000FFF78AFF0346002B07D10D4B40F2952268
:103C500012490D480BF01EFE0FE0FB6800221A719E
:103C60000F4B1B68FA689A4202D20D4AFB68136038
:103C7000F868FFF793FE00E000BF1037BD4680BD37
:103C800024070108F80701086C07010828750020BF
:103C90002C7500201C08010838080108600801087C
:103CA0003075002080B588B000AF78600B467B800F
:103CB0007B8803339BB223F00303FB83FB8B0B2B2B
:103CC00001D80C23FB83FB8BB3F5205F03D8FA8B61
:103CD0007B889A4201D20023CCE0684B1B687A684B
:103CE0009A4204D3664B1B687A689A4206D3654BA6
:103CF00040F2D122644965480BF0CCFD5F4B1B6854
:103D00007A689A4204D35E4B1B687A689A4201D360
:103D10007B68AFE07B68083BBB61B869FFF72CFEAE
:103D20000346FB82BB691A88FB8AD31A9BB2083B05
:103D3000BB82FA8BBB8A9A4206D9524B4FF4397236
:103D4000534952480BF0A6FDFA8BBB8A9A4201D91F
:103D500000238FE0FA8BBB8A9A4201D17B6889E00D
:103D6000BB691B881846FFF7F5FD38613B691B7975
:103D7000002B3FD1BB691B88B3F5205F06D1414BB7
:103D800040F2F522434941480BF084FD3B691B8812
:103D9000BB81FA8AFB8B13449BB20833FB813E4BF9
:103DA0001B683A699A4206D1FB891846FFF7D2FD93
:103DB0000346394A1360FB891846FFF7CBFD38618B
:103DC0003B6900221A713B69BA891A803B69FA8AF9
:103DD0005A80BB69FA891A803B691B88B3F5205F5A
:103DE00047D03B691B881846FFF7B4FD0246FB89A4
:103DF00053803EE0FB8B03F11402BB8A9A4238D811
:103E0000FA8AFB8B13449BB20833FB81BB691B8886
:103E1000B3F5205F06D11B4B40F216321D491B48FB
:103E20000BF038FDFB891846FFF794FD38611A4BFB
:103E30001B683A699A4202D2174A3B6913603B6990
:103E400000221A71BB691A883B691A803B69FA8A99
:103E50005A80BB69FA891A803B691B88B3F5205FD9
:103E600007D03B691B881846FFF774FD0246FB89A3
:103E700053807B6818462037BD4680BD28750020DA
:103E80002C75002024070108940801086C0701081C
:103E9000AC080108CC0801083075002080B588B056
:103EA00000AF0346FB80FB88002B01D10023D9E043
:103EB000FB8803339BB223F00303BB83BB8B0B2B29
:103EC00001D80C23BB83BB8BB3F5205F03D8BA8B1F
:103ED000FB889A4201D20023C4E0644B1B68184659
:103EE000FFF74AFD0346FB83B4E0FB8B1846FFF760
:103EF00031FD78617B691B79002B40F0A4807B69E0
:103F00001B881A46FB8BD31AA3F10802BB8B9A427B
:103F1000C0F099807B691B881A46FB8BD31AA3F1EA
:103F20000802BB8B14339A4233D3FA8BBB8B1344F6
:103F30009BB208337B827B8AB3F5205F06D14C4B62
:103F400040F287324B494C480BF0A4FC7B8A184660
:103F5000FFF700FDF860FB6800221A717B691A8880
:103F6000FB681A80FB68FA8B5A807B697A8A1A8010
:103F70007B6901221A71FB681B88B3F5205F0BD0A7
:103F8000FB681B881846FFF7E5FC02467B8A5380D6
:103F900002E07B6901221A71344B1B687A699A42EC
:103FA00027D1324B1B68BB6105E0BB691B881846F3
:103FB000FFF7D0FCB861BB691B79002B04D02F4BF5
:103FC0001B68BA699A42F0D1284ABB691360274B33
:103FD0001A682A4B1B689A420BD0244B1B681B792A
:103FE000002B06D0224B40F2B532254922480BF077
:103FF00051FCBA8B7B6913440833204A1268934200
:1040000006D91B4B40F2B9321E491B480BF042FC4B
:104010007B6903F00303002B06D0154B40F2BB3243
:10402000194915480BF036FC7B6903F00303002B9C
:1040300006D00F4B40F2BD3214490F480BF02AFC5A
:104040007B6908330EE0FB8B1846FFF783FC0346C1
:104050001B88FB83FA8BBB8BC3F520539A42FFF47A
:1040600044AF002318462037BD4680BD3075002080
:1040700024070108CC0801086C0701082C750020F2
:10408000E0080108FC0801082C0901085C09010886
:1040900080B485B000AF78607B689B6800221A60AE
:1040A0007B685B68033323F00303BB600023FB6082
:1040B00011E07B689B681A68BB681A607B689B6824
:1040C000BA681A607B681B881A46BB681344BB60D9
:1040D000FB680133FB607B685B881A46FB68934290
:1040E000E7DB00BF00BF1437BD465DF8047B7047B7
:1040F00080B582B000AF0023FB8009E0FB88084A4E
:1041000052F823301846FFF7C3FFFB880133FB80CA
:10411000FB88082BF2D900BF00BF0837BD4680BD21
:10412000D834010880B584B000AF78607B689B68A4
:104130001B68FB60FB68002B12D07B689B68FA68E9
:1041400012681A60FB6803F00303002B06D0074BCC
:104150004FF48C72064907480BF09CFBFB6800E0AB
:10416000002318461037BD4680BD00BF80090108F6
:10417000B0090108D409010880B582B000AF7860A9
:104180007B68002B06D10A4B4FF49E7209490A48FE
:104190000BF080FB7B68002B01D1002303E07868E3
:1041A000FFF7C0FF034618460837BD4680BD00BF75
:1041B00080090108FC090108D409010880B584B010
:1041C00000AF0346FB71FB79082B08D90A4B40F27C
:1041D00057120A490A480BF05DFB002308E0FB79FF
:1041E000084A52F823301846FFF79CFFF860FB6836
:1041F00018461037BD4680BD80090108100A010825
:10420000D4090108D834010880B584B000AF7860C3
:1042100039603B6803F00303002B06D00A4B4FF4D0
:10422000B6720A490A480BF035FB3B68FB607B68B5
:104230009B681A68FB681A607B689B68FA681A605A
:1042400000BF1037BD4680BD80090108300A010853
:10425000D409010880B582B000AF786039607B680E
:10426000002B06D10A4B40F295120A490A480BF07E
:1042700011FB7B68002B07D03B68002B04D039680A
:104280007868FFF7C1FF00E000BF0837BD4680BD7A
:1042900080090108FC090108D409010880B582B031
:1042A00000AF03463960FB71FB79082B07D90C4B33
:1042B0004FF4D5720B490C480BF0ECFA0CE03B685C
:1042C000002B08D0FB79094A52F823303968184688
:1042D000FFF79AFF00E000BF0837BD4680BD00BF72
:1042E00080090108500A0108D4090108D8340108DE
:1042F00080B400AF00BFBD465DF8047B704700008E
:1043000080B586B000AFF860B9607A603B60FB684A
:10431000002B08D15B4B40F227125B495B480BF046
:10432000B9FA0023A9E07B6A002B08D1554B4FF462
:104330009472574955480BF0ADFA00239DE0BB68D5
:10434000002B01D1534BBB607B68002B01D1514B3B
:104350007B603B68002B01D14E4B3B60FB68002229
:104360005A60FB6800229A60FB680022DA60FB68F2
:10437000494A5A61FB6800221A85FB68002283F8CB
:104380003120FB6824330422002118460BF0E7FAA1
:10439000FB680022DA61FB683A6A1A623F4B1A78BE
:1043A000FB6883F83420FB68BA6A1A613B687A6854
:1043B000B968F86800F014F97B6AF8689847034612
:1043C000002B01D0002358E0FB6893F83430FF2B1A
:1043D00003D1FB68002283F8342000233B61304B7B
:1043E0001B687B612BE07A69FB689A4206D1254BFA
:1043F00040F28B122B4925480BF04CFA3B690133F4
:104400003B613B69FF2B06DD1E4B40F28D122649B6
:104410001E480BF03FFA7B6993F83420FB6893F851
:1044200034309A4208D1FB6893F834300133DAB261
:10443000FB6883F8342005E07B691B687B617B693E
:10444000002BD0D17B69002BBED1FB6893F83430B0
:10445000FE2B03D1114B00221A7006E0FB6893F883
:1044600034300133DAB20D4B1A700D4B1A68FB6809
:104470001A600B4AFB681360FB6818461837BD4684
:1044800080BD00BF6C0A0108000B0108BC0A0108CE
:104490001C0B01084C350108C348000848A4002043
:1044A00040A40020400B0108540B010880B582B0E5
:1044B00000AF786039603968786802F057FB396876
:1044C000786806F03DFF00BF0837BD4680BD00009C
:1044D00080B586B000AFF860B9607A60BB68002B29
:1044E00006D11D4B40F2CB121C491D480BF0D2F9EE
:1044F0007B68002B06D1184B4FF4E6721749184819
:104500000BF0C8F9BB681A68FB6804331B689A4251
:104510001CD0BB681B687B61FB6804331A687B682E
:104520001A6007F1140319467868FFF7BFFFBB68EC
:10453000002B02D0BB681B6800E00023FA685360C0
:104540000121F86800F0D2F8012300E000231846AA
:104550001837BD4680BD00BF6C0A0108840B0108F6
:10456000BC0A010880B485B000AFF860B9607A6019
:10457000BB681A68FB6808331B689A420AD0BB689C
:10458000002B02D0BB681B6800E00023FA68936030
:10459000012300E0002318461437BD465DF8047B74
:1045A000704780B485B000AFF860B9607A60BB68CE
:1045B0001A68FB680C331B689A420AD0BB68002B50
:1045C00002D0BB681B6800E00023FA68D3600123B7
:1045D00000E0002318461437BD465DF8047B7047A1
:1045E00080B588B000AFF860B9607A603B600023A6
:1045F000FB610023BB61BB68002B01D11C4BBB607E
:104600007B68002B01D11A4B7B603B68002B01D1EA
:10461000174B3B60BB68002B03D0BB681B68002BAB
:1046200001D1012300E000237B617B69002B06D0D0
:1046300007F110031A46B968F868FFF749FFFA69ED
:104640007968F868FFF78EFFBA693968F868FFF78C
:10465000A8FF7B69002B06D107F110031A46B96841
:10466000F868FFF735FF00BF2037BD4680BD00BFAB
:104670004C35010880B483B000AF7860044A7B6891
:10468000136000BF0C37BD465DF8047B704700BF68
:1046900044A4002080B582B000AF78607B68002B16
:1046A00007D10F4B4FF454720E490F480BF0F2F83C
:1046B00013E07B6893F8313003F00103002B0CD139
:1046C0007B6893F8313043F00103DAB27B6883F8FA
:1046D00031200321786800F009F80837BD4680BD15
:1046E0006C0A0108F40B0108BC0A010880B582B00D
:1046F00000AF78600B46FB707B68002B06D1184B2F
:1047000040F26D32174918480BF0C4F87B6893F8F3
:10471000313003F00403002B1ED07B6893F8313056
:1047200003F00103002B17D0FB7803F00103002BEB
:1047300013D07B6804331B68002B0ED07B6893F882
:10474000313003F00803002B07D07B68043319468F
:10475000786809F0F5FB00E000BF0837BD4680BD72
:104760006C0A0108100C0108BC0A010880B582B06F
:1047700000AF78607B68002B07D1124B40F29B3270
:10478000114912480BF086F819E07B6893F8313034
:1047900003F00103002B12D07B6893F8313023F033
:1047A0000103DAB27B6883F831207B6893F83130FB
:1047B00003F00803002B02D0786808F07BFF08376D
:1047C000BD4680BD6C0A0108340C0108BC0A010812
:1047D00080B582B000AF78607B68002B07D1154BA5
:1047E0004FF47872144915480BF054F81EE07B68BA
:1047F00093F8313003F00403002B17D17B6893F852
:10480000313043F00403DAB27B6883F831207868F2
:1048100007F0C0F903217868FFF768FF7B68DB6960
:10482000002B03D07B68DB69786898470837BD4662
:1048300080BD00BF6C0A0108540C0108BC0A0108C5
:1048400080B582B000AF78607B68002B07D1114B38
:1048500040F20642104911480BF01CF817E07B6843
:1048600093F8313003F00403002B10D07B6893F8E9
:10487000313023F00403DAB27B6883F831207B689F
:10488000DB69002B03D07B68DB69786898470837C1
:10489000BD4680BD6C0A0108780C0108BC0A0108FD
:1048A00080B483B000AF786039607B68002B02D0A1
:1048B0007B683A68DA6100BF0C37BD465DF8047B5F
:1048C000704780B485B000AFF860B9607A606FF06F
:1048D0000B0318461437BD465DF8047B7047000093
:1048E00080B485B000AF0346FB71FB79002B13D079
:1048F0000D4B1B68FB600CE0FB6893F83430013310
:10490000DBB2FA799A4201D1FB6806E0FB681B68CA
:10491000FB60FB68002BEFD1002318461437BD461F
:104920005DF8047B704700BF40A4002080B582B0D2
:1049300000AF0C4B00221A700B4B1B687B600AE027
:104940007B685B6F002B03D0786802F04DF905E0BF
:104950007B68DB687B607B68002BF1D10837BD4644
:1049600080BD00BF49A4002058A4002080B400AF3F
:10497000034B01221A7000BFBD465DF8047B7047EF
:1049800049A4002080B485B000AFF860B96011463A
:104990001A460B46FB801346BB80FB6800221A6058
:1049A000FB68BA685A60FB68FA881A81FB68BA88A3
:1049B0005A813B8BDAB2FB681A73FB683A7F5A73F1
:1049C000FB6801229A73FB680022DA7300BF143778
:1049D000BD465DF8047B704780B58CB002AF0346DE
:1049E000FB710B46BB8013467B80FB797B847B8805
:1049F000B3F5207F7FD0B3F5207F00F3C880B3F5F7
:104A0000C17F10D0B3F5C17F00F3C180012B02D06C
:104A1000412B40F0BC807A88BB881946002000F00A
:104A2000D1F87862BDE000237B620023FB61BB8884
:104A30007B830820FFF7C2FB38613B69002B09D15B
:104A4000FFF794FF7B6A002B02D0786A00F0A8FA87
:104A50000023A7E07B8C03339BB223F003039BB2BC
:104A6000C3F514739BB27A8B934228BF1346FB8124
:104A70007B8C10333A691344033323F00303184645
:104A8000F9897A8B002301937B8800930B460146BA
:104A90003869FFF777FF3B695B6803F00303002B7E
:104AA00006D0424B4FF48072414942480AF0F2FE70
:104AB0007B8C033323F00303B3F5147F06D13B4B08
:104AC0004FF481723C493B480AF0E4FE7B6A002BBC
:104AD00002D13B697B6202E0FB693A691A603B697B
:104AE000FB617A8BFB89D31A7B8300237B847B8BCE
:104AF000002B9ED155E07B8C03339BB223F0030344
:104B00009AB2BB8803339BB223F003039BB21344D6
:104B10003B833B8B1033FB823A8BBB88033323F000
:104B200003039A4206D3FA8ABB88033323F00303B4
:104B30009A4201D2002335E0FB8A1846FFF7AEF90E
:104B400078627B6A002B01D100232BE07B8C103331
:104B50007A6A1344033323F003031846B988BA88EA
:104B6000002301937B8800930B460146786AFFF788
:104B700009FF7B6A5B6803F00303002B10D00B4B2B
:104B80004FF491720D490B480AF084FE08E0074B80
:104B900040F227120A4907480AF07CFE002301E090
:104BA00000BF7B6A18462837BD4680BD9C0C0108B3
:104BB000CC0C0108FC0C0108240D0108580D01085B
:104BC000840D010880B586B002AF78600B467B800B
:104BD00013463B803B88412B09D03B88012B06D0F4
:104BE0000F4B4FF4A5720F490F480AF053FE0720F0
:104BF000FFF7E4FAF860FB68002B01D100230BE01B
:104C000079887A88002301933B8800930B46796862
:104C1000F868FFF7B7FEFB6818461037BD4680BD41
:104C20009C0C0108A00D0108FC0C010880B588B09F
:104C300002AF7B600346FB730B46BB8113467B814F
:104C4000FB7B7B827B8A033323F00302BB891A44FC
:104C5000BB8C9A4201D9002318E03B6A002B07D095
:104C60007B8A033323F003033A6A13447B6101E038
:104C700000237B617868B989BA89022301937B8913
:104C800000930B467969FFF77DFE7B68184618375D
:104C9000BD4680BD80B584B000AF78600B467B8098
:104CA0007B68002B06D13A4B4FF4CC7239493A4815
:104CB0000AF0F0FD7B681B897A889A4263D27B6890
:104CC0001A897B88D31A3B817B887B817B68FB6058
:104CD00018E0FB685B897A89D31A7B81FB681A89A3
:104CE0003B89D31A9AB2FB681A81FB681B68FB6088
:104CF000FB68002B06D1264B40F2AF12274926480D
:104D00000AF0C8FDFB685B897A899A42E1D8FB68A2
:104D10001B7B03F00F03002B21D1FB685B897A8991
:104D20009A421CD0FB685B7B03F00203002B16D178
:104D3000FB685A68FB68D31A9AB27B8913449BB20A
:104D40001946F868FEF7AEFFF860FB68002B06D145
:104D50000F4B40F2BD1212490F480AF09BFDFB6851
:104D60007A895A81FB685A89FB681A81FB681B683B
:104D7000002B04D0FB681B68184600F011F9FB6893
:104D800000221A6000E000BF1037BD4680BD00BFA2
:104D90009C0C0108B40D0108FC0C0108CC0D0108A5
:104DA000E40D010880B586B000AFF860B960134625
:104DB000FB71FB68002B06D12B4B40F2DF122B4915
:104DC0002B480AF067FDFB68002B03D0BB68B3F5E6
:104DD000803F01D3012343E0BB68002B01D10023B6
:104DE0003EE0BB687B82FB681A897B8A13449BB2D6
:104DF0007A8A9A4201D9012332E0FB681B7B3B820D
:104E00003B8A03F08003002B0CD0FB685A68BB6818
:104E10005B4213447B61FB6810337A699A420DD27E
:104E200001231DE0FB79002B06D0FB685A68BB68A4
:104E30005B4213447B6101E0012311E0FB687A6966
:104E40005A60FB685A897B8A13449AB2FB685A817C
:104E5000FB681A897B8A13449AB2FB681A81002383
:104E600018461837BD4680BD9C0C0108000E01088D
:104E7000FC0C010880B582B000AF78603960002278
:104E800039687868FFF78EFF034618460837BD4635
:104E900080BD000080B584B000AF786039607B6869
:104EA000002B06D1204B40F24B22204920480AF02B
:104EB000F1FC7B68002B03D03B68B3F5803F01D346
:104EC00001232CE03B68002B01D1002327E03B6845
:104ED000FB817B685B89FA899A4208D9124B40F2C0
:104EE0005522144912480AF0D5FC012317E07B68CB
:104EF0005B68BB607B685A683B681A447B685A6091
:104F00007B685A89FB89D31A9AB27B685A817B687D
:104F10001A89FB89D31A9AB27B681A810023184632
:104F20001037BD4680BD00BF9C0C0108000E010873
:104F3000FC0C01080C0E010880B582B000AF78604F
:104F40000B467B8013467B70B7F90230002B08DAE2
:104F5000B7F902305B4219467868FFF79BFF0346BA
:104F600007E0B7F902307A7819467868FFF71AFF38
:104F7000034618460837BD4680BD80B582B000AFF5
:104F800078600B467B80B7F90230012219467868B9
:104F9000FFF7D2FF034618460837BD4680BD000024
:104FA00080B586B000AF78607B68002B0BD17B6842
:104FB000002B06D1384B4FF43772384938480AF085
:104FC00069FC002363E00023FB755CE07B689B7B4E
:104FD000002B06D1304B40F2F122324930480AF022
:104FE00059FC7B689B7B013BDAB27B689A737B68D8
:104FF0009B7BBB75BB7D002B43D17B681B683B61F2
:105000007B681B7B03F00F03FB737B685B7B03F008
:105010000203002B11D07B68BB60BB681B69002BAF
:1050200006D11D4B40F2FF221F491D480AF032FCF9
:10503000BB681B69786898471DE0FB7B022B04D195
:1050400079680820FFF72AF915E0FB7B012B04D1D2
:1050500079680720FFF722F90DE0FB7B002B03D1D5
:105060007868FEF7B5FD06E00B4B40F20F320F49B2
:105070000B480AF00FFCFB7D0133FB753B697B603D
:1050800001E000237B607B68002B9FD1FB7D1846ED
:105090001837BD4680BD00BF9C0C0108000E0108FA
:1050A000FC0C01082C0E0108440E0108680E0108D2
:1050B00080B485B000AF78600023FB8105E0FB89F8
:1050C0000133FB817B681B687B607B68002BF6D11A
:1050D000FB8918461437BD465DF8047B7047000015
:1050E00080B582B000AF78607B68002B10D07B6801
:1050F0009B7B0133DAB27B689A737B689B7B002BC6
:1051000006D1054B40F24232044905480AF0C2FB81
:1051100000BF0837BD4680BD9C0C01087C0E01080D
:10512000FC0C010880B584B000AF786039607B6802
:10513000002B02D03B68002B07D1204B40F25932A4
:105140001F4920480AF0A6FB34E07B68FB600AE0B8
:10515000FB681A893B681B8913449AB2FB681A8161
:10516000FB681B68FB60FB681B68002BF0D1FB68C9
:105170001A89FB685B899A4206D0104B40F2623272
:10518000114910480AF086FBFB681B68002B06D00B
:105190000A4B40F263320D490A480AF07BFBFB6878
:1051A0001A893B681B8913449AB2FB681A81FB6811
:1051B0003A681A601037BD4680BD00BF9C0C0108DC
:1051C000900E0108FC0C0108C80E0108F80E010839
:1051D00080B582B000AF7860396039687868FFF7D1
:1051E000A1FF3868FFF77CFF00BF0837BD4680BDD0
:1051F00080B586B000AF7860396000237B61002302
:105200003B617B68002B08D03B68002B05D07B6896
:105210001A893B681B899A4209D2574B40F2C9321E
:10522000564957480AF036FB6FF00F039FE07B6842
:105230005B891A467B69D21A3B685B8919463B69D0
:10524000CB1A9A4206D33B685B891A463B69D31A4C
:10525000FB6005E07B685B891A467B69D31AFB60BB
:105260007B685A687B69D0183B685A683B6913446D
:10527000FA6819460AF0E9FB7A69FB6813447B6116
:105280003A69FB6813443B617B685B891A467B691A
:10529000934206D9384B40F2D9323A4938480AF09D
:1052A000F9FA3B685B891A463B69934206D9324B4F
:1052B00040F2DA32344932480AF0ECFA3B685B8952
:1052C0001A463B69934204D300233B613B681B6849
:1052D0003B607B685B891A467B69934214D100234B
:1052E0007B617B681B687B607B68002B0CD13B6813
:1052F000002B09D0204B4FF47972244920480AF042
:10530000C9FA6FF00F0332E03B68002B13D03B6803
:105310005A893B681B899A420DD13B681B68002B58
:1053200009D0154B40F2E932194915480AF0B2FA92
:105330006FF005031BE07B68002B13D07B685A8954
:105340007B681B899A420DD17B681B68002B09D0B2
:10535000094B40F2EE320E4909480AF09BFA6FF011
:10536000050304E03B68002B7FF461AF002318467F
:105370001837BD4680BD00BF9C0C0108440F0108D2
:10538000FC0C0108740F01088C0F0108A80F01081C
:10539000B80F010880B588B000AFF860B960114659
:1053A0001A460B46FB801346BB8000237B830023F9
:1053B000FB82FB68002B08D12B4B40F20A422B49A1
:1053C0002B480AF067FA00234AE0BB68002B08D19B
:1053D000254B40F20B42274925480AF05BFA00238F
:1053E0003EE0FB68FB6134E0BB88002B0AD0FB6920
:1053F0005B89BA889A4205D3FB695B89BA88D31A5C
:10540000BB8023E0FB695A89BB88D31A3B833A8B64
:10541000FB889A4201D9FB883B837B8BBA68D01802
:10542000FB695A68BB8813443A8B19460AF00DFB96
:10543000FA8A3B8B1344FB827A8B3B8B13447B832E
:10544000FA883B8BD31AFB800023BB80FB691B6867
:10545000FB61FB88002B02D0FB69002BC4D1FB8AC7
:1054600018462037BD4680BD9C0C0108E40F01089A
:10547000FC0C01080410010880B584B000AF03469D
:105480003A60FB710B46BB803B681989BA88FB798F
:105490001846FFF7A1FAF860FB68002B01D1002342
:1054A00011E03968F868FFF7A3FE0346FB7297F92D
:1054B0000B30002B06D0064B40F22452054906481B
:1054C0000AF0E8F9FB6818461037BD4680BD00BFFA
:1054D0009C0C010810110108FC0C010880B500AFFC
:1054E0000AF0D8F803469BB2C3F30D039BB2A3F5B1
:1054F00080439AB2014B1A8000BF80BD200000207B
:1055000080B582B000AF78607B681B7D012B05D130
:10551000064BD422064907480AF0BCF979680120F5
:10552000FEF7BCFE00BF0837BD4680BD9C110108D8
:10553000CC110108E011010880B582B000AF78609D
:105540007B681B7D012B05D1064BDF2206490748EE
:105550000AF0A0F979680220FEF7A0FE00BF083724
:10556000BD4680BD9C11010808120108E011010828
:1055700080B500AF00F0A2FE074B1B780133DAB212
:10558000054B1A70044B1B7803F00103002B01D06C
:1055900000F054FB00BF80BD61A4002080B584B042
:1055A00000AF786039603B68002B05D10D4BFF22BE
:1055B0000D490E480AF06EF97B68FB600AE0FB6853
:1055C000DB6F3A689A4202D1FB680022DA67FB6817
:1055D000DB68FB60FB68002BF1D100BF00BF103718
:1055E000BD4680BD9C11010824120108E01101088C
:1055F00080B584B000AF78607B68002B06D1144B77
:1056000040F21112134914480AF044F97B681B7DDB
:10561000012B06D00E4B4FF4897210490E480AF048
:1056200039F90123FB600BE00D4AFB6852F8233087
:105630001B6879681846FFF7B1FFFB680133FB6010
:10564000FB68032BF0D900BF00BF1037BD4680BDFB
:105650009C1101084C120108E011010858120108C0
:1056600014350108B0B588B004AF78600B46FB7004
:105670007B68002B06D1634B4FF4AF7262496348DD
:105680000AF008F9FB78002B66D07B681B7D042BA1
:1056900003D07B681B7D072B5ED17B689B6F002B43
:1056A00004D17B681B8DB3F5066F55D07B685B8B8F
:1056B00003F01003002B06D1524B4FF4B272544941
:1056C00052480AF0E7F87B68186D7B685C6A7D6871
:1056D0007B6804337A68D28A7968098B02910192D7
:1056E00000932B4622460146786804F091FE7868C4
:1056F00001F0C6F8474B1B687A689A4205D1454BC2
:105700001B68DB68434A136013E0424B1B68FB6075
:105710000CE0FB68DB687A689A4204D17B68DA683F
:10572000FB68DA6005E0FB68DB68FB60FB68002B68
:10573000EFD17B680022DA60374B01221A70374BB9
:105740001B687A689A4202D103F05EFD02E0786835
:10575000FFF7D6FE002350E07B681B7D022B3BD079
:10576000022B44DC002B02D0012B2AD03FE07B68C7
:10577000DB8A002B21D02A4B1B687A689A4205D11C
:10578000274B1B68DB68264A136013E0244B1B6819
:10579000BB600CE0BB68DB687A689A4204D17B6826
:1057A000DA68BB68DA6005E0BB68DB68BB60BB68D1
:1057B000002BEFD17B680022DA607868FFF7A0FE4B
:1057C0001AE07868FFF714FF7968164801F0A8F826
:1057D0007868FFF7B1FE0FE079680E4801F0A0F895
:1057E0000D4B01221A707868FFF78AFE04E0786892
:1057F00000F01AF8034600E0002318461037BD46B3
:10580000B0BD00BF9C11010870120108E011010831
:105810009012010858A4002060A4002098A4002041
:1058200050A4002054A4002080B584B000AF78605C
:105830007B68002B06D12E4B4FF4CE722D492E489B
:105840000AF028F87B681B7D072B20D0072B2BDC68
:10585000032B02D0042B0DD026E0786803F0E6FE7F
:105860000346FB7397F90F30002B1FD17B6805228D
:105870001A751BE0786803F0D9FE0346FB7397F9AD
:105880000F30002B14D17B6805221A7510E0786860
:1058900003F0CCFE0346FB7397F90F30002B09D1C0
:1058A0007B6809221A7505E000231CE000BF02E0B6
:1058B00000BF00E000BF97F90F30002B03D17868DC
:1058C00003F0F2FF0DE097F90F30B3F1FF3F08D17D
:1058D0007B685B8B43F008039AB27B685A83002392
:1058E00001E097F90F3018461037BD4680BD00BF64
:1058F0009C1101084C120108E011010880B582B02A
:1059000000AF78607B68002B09D10F4B4FF4F47225
:105910000E490F4809F0BEFF6FF00F030FE07B68E0
:105920001B7D012B06D07B685B8B43F010039AB282
:105930007B685A8301217868FFF794FE0346184676
:105940000837BD4680BD00BF9C110108AC1201089C
:10595000E011010880B58EB004AF786039607B68D3
:10596000002B07D1524B40F23D225249524809F0D8
:1059700091FF99E07B681B7D012B06D14C4B4FF4C6
:1059800010724E494C4809F085FF7B681B7D0A2B3D
:1059900007D179684A4800F0C3FF7868FFF7B0FD87
:1059A00082E000237B6200237B847B681B6DBB61EC
:1059B0007B685B6A7B617B68D3F890303B617B6876
:1059C0001B69FB607B681B7D002B26D17B68DB8A13
:1059D000002B2ED03B4B1B687A689A4205D1394B7D
:1059E0001B68DB68374A136013E0364B1B68FB61AA
:1059F0000CE0FB69DB687A689A4204D17B68DA685C
:105A0000FB69DA6005E0FB69DB68FB61FB69002B81
:105A1000EFD17B680022DA600BE03B687B627B6839
:105A2000DB8A7B847968284800F07AFF274B0122C3
:105A30001A707B681B6F002B04D07B681B6F1846A5
:105A400000F01CFD7B68DB6E002B04D07B68DB6EF6
:105A5000184600F013FD7B685B6F002B04D07B6859
:105A60005B6F184600F00AFD7B6A002B0ED0796848
:105A70007B6804337A68128B02927A8C01920093CD
:105A80000B467A69B969786804F0C2FC7B681B7DB3
:105A9000FB727868FFF734FD3B69002B04D03B694B
:105AA0006FF00C01F86898472837BD4680BD00BFED
:105AB0009C110108E0120108E0110108FC12010824
:105AC0005CA4002050A4002058A4002060A4002062
:105AD00080B582B000AF786001217868FFF73AFFA7
